:0200000270008C
:1080000000000120B5820700DD820700DF82070043
:10801000E1820700E3820700E5820700000000001C
:108020000000000000000000000000005DB4070038
:10803000E982070000000000EB820700ED820700E4
:10804000EF820700EF820700EF820700EF82070050
:10805000EF820700EF820700EF820700EF82070040
:10806000EF820700EF820700EF820700EF82070030
:10807000EF820700EF820700EF820700EF82070020
:10808000CDB40700EF820700EF820700EF82070000
:10809000EF820700EF82070025B40700EF82070098
:1080A000EF820700EF820700EF820700EF820700F0
:1080B000EF820700EF8207000000000000000000D0
:1080C000EF820700EF820700EF820700EF820700D0
:1080D000E5B40700EF820700EF8207000000000010
:1080E0000000000000000000000000000000000090
:1080F0000000000000000000000000000000000080
:10810000000000000000000000000000000000006F
:10811000000000000000000000000000000000005F
:10812000000000000000000000000000000000004F
:10813000000000000000000000000000000000003F
:10814000000000000000000000000000000000002F
:10815000000000000000000000000000000000001F
:10816000000000000000000000000000000000000F
:1081700000000000000000000000000000000000FF
:1081800000000000000000000000000000000000EF
:1081900000000000000000000000000000000000DF
:1081A00000000000000000000000000000000000CF
:1081B00000000000000000000000000000000000BF
:1081C00000000000000000000000000000000000AF
:1081D000000000000000000000000000000000009F
:1081E000000000000000000000000000000000008F
:1081F000000000000000000000000000000000007F
:1082000010B5054C237833B9044B13B10448AFF3D0
:1082100000800123237010BD605800200000000082
:1082200024D1070008B5034B1BB103490348AFF342
:10823000008008BD000000006458002024D1070021
:10824000154B002B08BF134B9D46A3F5803A002128
:108250008B460F461348144A121A04F031FD0F4B97
:10826000002B00D098470E4B002B00D098470020E1
:10827000002104000D000D48002802D00C48AFF387
:10828000008004F0DDFC2000290003F0AFFA04F0C8
:10829000C3FC00BF00000800000001200000000037
:1082A0000000000060580020A077002000000000BF
:1082B000000000000649074A074B9B1A03DD043BF8
:1082C000C858D050FBDC03F06FF9FFF7B9FF00008E
:1082D00088D10700B857002060580020FEE7FEE76D
:1082E000FEE7FEE7FEE7FEE7FEE7FEE7FEE7FEE766
:1082F00070B5EFF3108672B60D4A94680123A4B9E5
:1083000093600C4B0C4DD3F8801029401160C3F8DA
:108310008050D3F8841051604FF0FF32C3F88420AE
:10832000047006B962B6002070BD0370F9E700BFA3
:108330008058002000E100E0FC06FFBD044B53E83C
:10834000011FC1EA014143E80112002AF7D1704739
:108350008C580020044B53E8021FC1EA214143E836
:108360000212002AF7D170478C58002013B5114B28
:1083700053E8012F94B2D9890C4499898C4228BFC3
:10838000641A19898C4202BFBFF32F8F002307E0C4
:10839000C4EA020443E801410029E9D14FF0010396
:1083A0008DF803300192019B03609DF8030002B039
:1083B00010BD00BF8C58002010B5064B002253E8BA
:1083C000001F01EA020043E8000494F0000FF6D118
:1083D00010BD00BF9C5800202DE9F0471A4C0646FE
:1083E0001D4604F12000194B63620F46904600F0D1
:1083F0000DFAA24628BBDFF85C90C4F82090F6B1D5
:1084000047B9DAF824302968DA68914210D248F284
:10841000145016E0636A3A465B68314604F1200066
:10842000984770B9236A4B45EBD048F2025008E0F8
:108430002A4641469B680648BDE8F047184748F27F
:108440001050BDE8F08700BF8058002010CD070015
:10845000A05800206E5246484BDF704761DF7047DE
:1084600069DF704760DF704711DF704710DF7047CA
:1084700069B10B78022B0CD1022804D0032814BF59
:1084800008201120704703230B70002070470E2036
:1084900070470820704738B1044B0360044B4360B9
:1084A00001230372002070470E207047B594070027
:1084B0007184070043681A44426011B101399A423D
:1084C00001D10120704713F8010B01F8010FF6E705
:1084D0005B689A68064B9A4208D1D0E901230549A6
:1084E0000132013BC1F89820C1F89C30704700BFB1
:1084F00028CD07008058002043F204031A68084B77
:108500009A4201BF43F20803186800F6FF7020F496
:108510007F600CBF20F00F004FF48050704700BF09
:10852000DBE5B15108B5FFF7E7FF054BD3F8B830ED
:10853000184400F6FF7020F47F6020F00F0008BDA3
:1085400080580020F8B5094E094CA41B0746E408E2
:1085500000250436A54201D10020F8BD56F835307B
:10856000384698470028F8D10135F3E728D10700AD
:1085700030D1070029DF7047024B0620D3F858326C
:10858000184700BF8058002018DF704743690BB1BF
:10859000C0681847704713DF704766DF704762DFB7
:1085A0007047B5DF7047B1DF7047B0DF7047AEDFAF
:1085B00070477FB50023CDF80B308DF80F300B4B93
:1085C000ADF80610B3F86832ADF8083001238DF825
:1085D0000A300DF10603CDE90430054B02A91888D5
:1085E000FFF7E5FF07B05DF804FB00BF80580020EF
:1085F000B857002010B5044686B000210D2202A80D
:10860000019104F05DFB2378082B0ED1384AB2F8B3
:108610007032B2F87212013B9BB2A2F87032E9B12B
:10862000E3B90323A2F870122370627823788DF8DF
:1086300005306021012A8DF804108DF806200FD036
:108640000B2A13D12A4B002193F874228DF80720AE
:1086500083F87412042101A8FFF7ABFF06B010BD28
:10866000062B05D0082B29D0032B27D00321F2E7B6
:10867000E1688DF80710D4E90123080A8DF8080095
:10868000080C090E8DF80A10110A8DF80B208DF8D0
:108690000C10110C120E8DF80E201A0A8DF80F30E6
:1086A0008DF810201A0C1B0E8DF80D108DF8090096
:1086B0008DF811208DF812300F21CCE7D4E9012379
:1086C000110A8DF807208DF80810110C120E8DF884
:1086D0000A201A0A8DF80B308DF80C201A0C1B0E8C
:1086E0008DF809108DF80D208DF80E300B21B2E7B2
:1086F00080580020ADDF7047AADF7047A8DF7047C1
:1087000090DF70478FDF704786DF70477FDF7047ED
:108710007DDF70477CDF70477ADF704776DF704718
:1087200075DF704774DF704773DF704772DF704723
:1087300070B518228CB000210DEB020004F0C0FAD5
:108740002823254C08931623ADF806300023CDE9E5
:108750000333059304F2752302930223062284F85F
:10876000753284F8793259230125092684F8772255
:1087700084F87A320322FE230DF1060104F27E20F2
:108780008DF818508DF82D50ADF80C6084F87652A5
:1087900084F8782284F87B32FFF7BAFFC8B9BDF8B5
:1087A000063084F87D625A1984F87C22BDF80C20CA
:1087B0000A4C134402A906AAA01CADF80C30FFF71E
:1087C000B5FF30B9A078FFF7ADFFA0782946FFF7D5
:1087D000ABFF0CB070BD00BF80580020B857002020
:1087E0006DDF70476CDF7047062810B5044602D174
:1087F0000020FFF7A7FE044BD3F894321BB12046AC
:10880000BDE81040184710BD805800200E490F4A9F
:1088100030B500240025C0E91445C0E916120C4CFF
:108820000C4A0D4DC0E918420C4AC0E91A520C4AD4
:10883000026702F17452A2F523020023A2F69242CB
:1088400083644267184630BD67E6096A85AE67BB38
:1088500072F36E3C3AF54FA57F520E518C68059B22
:10886000ABD9831F10B50B689A684B680024C0E928
:108870000243C0E9002294782344036192F9034043
:10888000234443614B68036101F10C034361537856
:1088900003F0C003802B04BF0431016110BD2DE93A
:1088A000F341002604460F46B0463546A3682BB375
:1088B000236801220DF1070120469847F0B1A36813
:1088C0009DF807C0013B0CF07F02C5F12001A360B9
:1088D000A5F1200302FA03F322FA01F10B43AA40A7
:1088E0001CF0800F46EA020643EA080805F1070576
:1088F00002D1C7E9006802E0462DD7D1002002B0BE
:10890000BDE8F081F7B50F4669461646FFF7C7FF89
:10891000B0B1DDE90013002501F001044A0842EA84
:10892000C37254EA05014FEA530314BFDD431D46E9
:108930003B7914BFD4431446082B03D1C6E9004544
:1089400003B0F0BD042B08D134602246D317AB42EC
:1089500006BFA24201200020F2E7022B03D123B27E
:1089600033801AB2F2E7012B03D163B233705AB2EB
:10897000ECE70020E4E773B50C4669461646FFF7BE
:108980008EFF68B12379082B0CD1DDE90045C6E9DB
:108990000045DDE90023AB4206BFA24201200020D2
:1089A00002B070BD042B04D1009B33601C4600252F
:1089B000EFE7022B4FF0000004D1009B33809CB204
:1089C0000546E6E7012BEBD1009B337003F0FF0473
:1089D000F6E737B50D4669461446FFF760FF30B13C
:1089E0002A79082ADDE9003103D1C4E9003103B056
:1089F00030BD042A18464FEAE37108D123601A46B5
:108A00000B468B4206BF824201200020EFE7022A7C
:108A100004D11BB223801AB2D317F2E7012A03D183
:108A20005BB223705AB2F7E70020E0E72DE9F3418B
:108A300083680446884623B90026304602B0BDE864
:108A4000F081036801220DF10701984706460028CE
:108A5000F2D0A3689DF80750013BA3609DF9073051
:108A6000002B1ADA05F07F050727A368002BE3D057
:108A7000236801220DF10701204698470028DBD02A
:108A8000A3689DF80720013BA36002F07F03BB4071
:108A90001D43130607F1070702D4C8F80050CCE7BE
:108AA000232FE2D1C8E773B50D4601A90446FFF7AD
:108AB000BDFF064618B90026304602B070BD94E8E6
:108AC0000F0085E80F0001998A42F4D3A960A368DA
:108AD0005B1AA360F0E730B5044685B01546A9B926
:108AE0000268124B9A4211D0102D06D82A466946C8
:108AF0002046FFF7F0FF05B030BD10226946204642
:108B0000FFF7E9FF0028F6D0103DEDE7A368AB4280
:108B100001D20020EFE723682A4620469847002824
:108B2000F7D0A268521BA260E5E700BFB58407003A
:108B3000F7B50E4601A907461546FFF777FFA8B11E
:108B4000019A0123D3184FF0000404D2717801F088
:108B5000C001802901D1204608E031799942FAD339
:108B600029463846FFF7B7FF019BEC5403B0F0BD30
:108B700073B50D4601A906461446FFF757FF90B19D
:108B8000019AFF2A11D86B7803F0C003802B02F101
:108B900001010AD02B798B4207D32146304601F8D8
:108BA000012BFFF798FF02B070BD0020FBE713B563
:108BB000144669460822FFF78EFF18B1DDE900234D
:108BC000C4E9002302B010BD13B5144604220DEB16
:108BD0000201FFF780FF08B1019B236002B010BDC6
:108BE00013B5044605291FD8DFE801F0030F151E51
:108BF0001E1C012201A92046FFF76DFF18B19DF947
:108C00000430002BF5DB02B010BD08220021204605
:108C1000FFF761FFF7E701A9FFF708FF0028F2D08F
:108C2000019AF3E70422F1E70020ECE710B543686E
:108C30001A787AB103F10C0242601A7B62B90168BA
:108C4000C368C0E901128C782344036191F90310D1
:108C50000B444361104620E059781A7901F0300442
:108C6000302C1BD15C7B04F03004302C1ED1997861
:108C70000269521A02610022597811F0300F02BFC6
:108C8000816801318160997B114402690A44026163
:108C900093F90F301A444261012010BD01F0F00435
:108CA000202C03D1597911FB02F2E5E701F0C00154
:108CB000802908BF0422DFE70A4AD2F800347BB1DA
:108CC00009480023D2F80815D940C90748BF03F561
:108CD000C07103F1010348BF42F82100072BF1D115
:108CE000704700BF000001403546526EE4E7024B7A
:108CF000012283F8982270478058002037B56FF022
:108D00007F42154C057BD4F804358A4228BF0A46B9
:108D1000891A13444A1E942A23F07F4305F5A8724A
:108D20009BBF963B96314160416044F822300B4B2B
:108D30004FF4F86043F001039847094BAA0013442D
:108D400000221A601B680193019B4FF48033AB40F3
:108D5000C4F8043303B030BD00400240A0CD07008A
:108D6000404102401A4890F8992284B0002A2CD140
:108D70004FF08043A021D3F81834DB035EBF154BBE
:108D800001221A60144A0023136012680392039AA6
:108D9000124A136012680292029A114A1360126812
:108DA0000192019A0F4A82F824131021C2F884110B
:108DB00051600D4A0D49C2F8083501230B600221AC
:108DC0001360C2F8041380F8993204B0704700BFF2
:108DD000805800200800004000410240404102400D
:108DE0004441024000E100E00040024008400240EF
:108DF00038B5114BD3F80024CAB1D3F804450F4D50
:108E000040F616518C42B8BF0C46A4F54864FFF7F3
:108E100053FFEC61FFF7A6FF2846094B40F8143FCB
:108E20002146FFF76BFF074B4FF480321A60064B69
:108E3000012283F89A2238BD00000140B857002073
:108E4000ED8C070000E100E0805800200139090B9B
:108E500030B5020B01EB103101254FF080409142FB
:108E600001D2002030BD02F01F03540905FA03F3BC
:108E7000032C05D8DFE804F00206090CC0F8003620
:108E80000132ECE7C0F80436FAE7C0F81036F7E72D
:108E9000C0F81436F4E7024B012283F89B22704796
:108EA0008058002041DF7047BFF34F8F0549064BC4
:108EB000CA6802F4E0621343CB60BFF34F8F00BF78
:108EC000FDE700BF00ED00E00400FA0508B5FFF77C
:108ED000EBFF08B5FFF7E8FF10B5072826D8DFE855
:108EE00000F004262525250425044FF0A043032285
:108EF000C3F844274FF40030C3F848274FF48021CB
:108F0000C3F84C274FF48014C3F850274FF40022C5
:108F1000C3F80805C3F80815C3F80825C3F80845C1
:108F2000C3F80C05C3F80C15C3F8082510BD4FF0A5
:108F3000A0434FF48022C3F808254FF40022C3F861
:108F40000C25F3E7013A02440139824200D270470E
:108F500011F8013F02F80139F7E770B516460D46E2
:108F6000FFF7F0FF3246A9193044BDE87040E9E749
:108F70000F4B30B50124C3F80445BFF36F8FBFF327
:108F80004F8F01EB8202401A914207D10022C3F8B1
:108F90000425BFF36F8FBFF34F8F30BD441851F8D6
:108FA000045B2560D3F80044002CFBD0ECE700BF45
:108FB00000E001400A4B0222C3F80425BFF36F8F83
:108FC000BFF34F8FC3F80805D3F80024002AFBD065
:108FD0000022C3F80425BFF36F8FBFF34F8F704794
:108FE00000E001402DE9F04FC9B008AA01F14005A9
:108FF00014464B780E781B0443EA0663CE7833435D
:109000008E78043143EA06238D4244F8043BF0D1C4
:109010001024916B16464FEAF14383EA714383EAC9
:109020009123716A366852F8045F31440B444FEA69
:10903000B54181EAF51181EAD50101340B44402C98
:10904000D363E6D1D0E914E30093836D0193C36D3C
:109050000293036E0393436E0493836E0593C36E72
:109060000693DDE9057BDDE9031CDDE901592B4BA6
:10907000009E079374464FF00008079B53F8042B9B
:1090800007934FEAF12383EAB11383EA716A08ABCD
:1090900053F828301A440AEB020327EA010A01EACE
:1090A0000C028AEA02021A444FEA743A86EA05037D
:1090B0005A448AEAB40A06EA050B234083EA0B0302
:1090C0008AEAB45A08F101089A44B8F1400F02EB59
:1090D0000903BB465244A94619D172440265009A5D
:1090E00022444265019A32448265029A2A44C2654A
:1090F000039A1A44049B02660B444366059B63442F
:109100008366069B3B44C36649B0BDE8F08F674663
:1091100035468C46264619461446AEE7A8CD0700CC
:10912000F8B504460D46EAB900201EE004F1080037
:10913000AE180027B542F7D0A36C15F8011BE21852
:109140000133402B1172A364F4D10146FFF74AFFAB
:10915000D4E9143213F5007342F10002C4E9143269
:10916000A764E7E70029E1D10E20F8BD436843B1C9
:10917000026891680B4443605268934204BF002325
:10918000436070477FB50E4D0E4C0F4E01A8FFF7A0
:1091900063F978B9B44218BF204602950390039B47
:1091A000002BF3D00198D3E90021904702A8FFF7E4
:1091B000DDFFF4E7052801D0FFF776FE04B070BDAF
:1091C000A8CE070078D1070080D1070030B5134D35
:1091D000ADF5017D4FF4FA740DF1020103A8ADF86D
:1091E0000240FFF73BF988B90D4B0E4A01959342B7
:1091F00008BF03460293029B002BEDD003A8D3E9DE
:109200000021904701A8FFF7B1FFF4E7052801D03E
:10921000FFF74AFE0DF5017D30BD00BFB4CE07005B
:1092200050D1070058D10700024B93F89C3203B18C
:10923000CCE770478058002013B50A4B0A4A0093C8
:109240000A4B934208BF002304460193019B0BB9CC
:1092500002B010BD2046D3E9002190476846FFF7D1
:1092600085FFF3E7C0CE070078D1070070D1070073
:1092700013B50C4B0C4A00930C4B934208BF0023D0
:1092800004460193019808B902B010BDD0E900214D
:109290002046904718B16846FFF768FFF2E71120B3
:1092A000F2E700BFCCCE070070D1070068D10700FD
:1092B000044B93F8A8020122B0FA80F083F8B1229F
:1092C0004009704780580020034B93F8A8020038EB
:1092D00018BF0120704700BF805800200020704751
:1092E0000020704708467047084670470E4B30B55F
:1092F00043600E4B012003F5287151E8002F42EA2C
:10930000000441E8004595F0000FF6D152B993F8FA
:10931000B41283F8B01203F52E71C3E903125A6137
:10932000034A9A61002030BDD8CE07008058002043
:10933000DC011C0070B50668B36886B004460D46B3
:1093400073B114220021684603F0BAFCA3680593A8
:109350002379019533B1012B0ED0B3686846984745
:1093600006B070BD01238DF8003023690293E368D5
:10937000039363690493F0E702238DF80030E368F8
:109380001B030293F5E728DF7047034BD8690038C9
:1093900018BF0120704700BF805800202DE9F04120
:1093A00015461F4686B0164B80460E46012253E8EE
:1093B000004F44EA020143E8001090F0000FF6D19C
:1093C000E4B921468D4213D1FEF7F6FFD8F80830F4
:1093D00053B102228DF800200022CDE90126CDE90B
:1093E0000325059768469847204606B0BDE8F081FA
:1093F00006EB0130FFF7DEFD0131E3E71124F3E76F
:109400009C5800202DE9F0431D4687B0144B804640
:109410000F4616464FF0010953E8004F44EA09028F
:1094200043E8002191F0000FF6D1BCB9AA083146FB
:109430003846FFF79DFDFEF7BFFFD8F808304BB167
:109440000E9A8DF80090CDE90147CDE903650592AC
:1094500068469847204607B0BDE8F0831124F9E735
:109460009C58002008B5FEF7A7FF002008BD024B5E
:1094700043600020704700BFE4CE070030B53AB12A
:109480001368DB430A4D0144814204D1D84330BD07
:109490004FF0FF33F6E710F8012B5340082213F08A
:1094A000010418BF2C46013A84EA5303F7D1EBE7D5
:1094B0002083B8ED70B504460D4601B30B78012B3F
:1094C00006D01ED9033B012B94BF0820112070BD8C
:1094D0000D4ED6F89C3190B1013312D100221821E3
:1094E0000430FFF7CBFF07222060214606F5CE703F
:1094F000FFF740F80028EAD102232B70E7E70E209F
:10950000E5E70820E3E700BF00F0070010B5074CCF
:10951000FEF7F2FFD4F8B8100022FFF7AFFFD4F83F
:10952000BC301B1A5842584110BD00BF8058002063
:1095300010B5084B9A685AB150B9EFF3108172B662
:10954000054A1C6814605C685460986001B962B692
:10955000002010BD8058002000E100E013B500237A
:1095600004460DF107008DF80730FEF7C1FE094AE9
:109570000948D2F89434591CC2F89414241AF420DF
:10958000B4FBF0F41C709DF80700FFF7D1FF02B0A8
:1095900010BD00BF805800206C670020DEE773B567
:1095A0001B4D95F8B4327BB3012085F89C04FFF77E
:1095B0005FFE11284FF0000628D00220FFF73CFE86
:1095C0000DF107008DF80760FEF792FEFEF74CFFE5
:1095D00004469DF8070085F8B462FFF7A9FF54B967
:1095E000AB6885F89C444BB12B6823F480032B6057
:1095F0000320FFF721FE204602B070BD054B4FF45B
:109600008002C3F88020F3E70824F4E73446F2E749
:109610008058002000E100E038B51549D1F8A034A9
:10962000024613F0010021D0124882421DD0124A96
:1096300010884FF6FF74A04213D043F00403C1F822
:10964000A0341321FFF76AF880B90C4DC82445F007
:1096500001054FF47A40A847013CFAD1BDE83840F3
:109660009DE79078FFF75EF8F8E7002038BD00BF6F
:109670008058002028D10700B8570020F0CE0700FE
:1096800037B5234D95F8B442002C3ED10123204636
:1096900085F89C34FFF7ECFD112833D02046FFF706
:1096A000CBFD1C4B8DF80340186801900DF10300B1
:1096B000FEF71EFE184901A8FEF7D8FE0446B0FAD0
:1096C00080F0400985F8B4029DF80300FFF730FFF1
:1096D000C4B9124985F89C4491F816335A09EC2311
:1096E0001341DB0705D5AB682BB94FF480030B6042
:1096F00005E0FFF7D9FB2B6843F480032B600120C2
:10970000FFF79AFD204603B030BD0824FAE700BFFA
:1097100080580020F6CE0700D38E070000E100E05D
:1097200038B5831E012B54D82A4C94F8A832002B4C
:109730004FD0022B0AD1032833D00022D4F8A4340E
:10974000C4F8AC221A793AB1012A24D094F8B13283
:109750009BBBBDE838403FE0D3E905128D1A142DBC
:1097600094BF521914329A619142EFD102284FF0FE
:1097700000030CBF19460D21D4F8A40484F8A832C4
:10978000FFF7D8FDB4F8A824B4F8AA349A42DDD182
:10979000FEF7E0FDDAE71A6901321A615B699A4265
:1097A000E3E7D4F8AC320133082B02D8C4F8AC326A
:1097B000CCE70023C4F8AC32D8E794F89C3443B12A
:1097C00094F8B43213B1BDE83840E8E6BDE838405B
:1097D00056E738BD8058002037B53E4C94F8A83283
:1097E000002B33D104F10C0353E8022F1FFAA2F02F
:1097F000D988884202BFBFF32F8F00230DE0D9899B
:1098000008449989884228BF401AC2EA004043E8C8
:1098100002010029E8D14FF001038DF803300192D5
:10982000019A9DF80330C4F8A82403F0FF0133B96E
:10983000C4F8A4140023C4F8A43203B030BDE36814
:1098400003EB1243C4F8A434002BF3D00223D4F862
:10985000A45484F8A8322B79ABB1012B2AD0032170
:109860002846FFF767FD0023B4F8A82484F8A8323F
:10987000C4F8A432B4F8AA349A42DED103B0BDE8E9
:109880003040FEF767BDD5E90523D21A142AD5E981
:10989000031028BF14229208012A38BF012219445C
:1098A0001844FEF767FE58B11128D8D1012384F877
:1098B000A832C2E7D5E903031844FFF764FDF2E7D5
:1098C00094F8B032002BB8D10146022003B0BDE8B5
:1098D000304025E78058002000F0FD03012B09D11E
:1098E000054B002283F8B122421E5042504183F8BA
:1098F000B00271E7704700BF805800200A4930B4B9
:1099000001F52973012253E8000F40EA020443E8FD
:10991000004595F0000FF6D120B991F8B1320BB99E
:1099200030BC59E730BC7047805800200C4B1B7886
:10993000062B10D10B4B1B681A070CD10A4B186869
:1099400000F0F003302B08D000F0E000A0F140035D
:10995000584258417047002070470120704700BFAF
:10996000E00F00F0E40F00F0E80F00F0094B1B7867
:10997000062B0CD1084B1B681A0708D1074B186837
:1099800000F0F000A0F13003584258417047002029
:10999000704700BFE00F00F0E40F00F0E80F00F0A8
:1099A0002DE9F341274C002605460DF107008DF8FF
:1099B00007600F46FEF79CFC94F8AC34B4F8AE1484
:1099C00094F8AD048842C2B238BF561CDBB238BF2F
:1099D000F6B2B3422FD094F8AD6494F8AD24D3B26C
:1099E000914286BF0133DBB2002384F8AD349DF889
:1099F0000700FFF79DFD4FF6FF739E4220D0D4F87D
:109A0000B0244FEAC60842F8367002EBC601ADB189
:109A1000D4F8B434B4F8B804182206FB0030294650
:109A200003F040F9D4F8B034434418229A8000205F
:109A300002B0BDE8F0814FF6FF76D8E78D80F6E7FB
:109A40000420F5E78058002030B52048C0F5FE21FD
:109A5000C1F30B0389B023B9B0F5FE2F01D8FFF78E
:109A6000F5F9EFF305824FF480531C6841F20403CB
:109A70001968002383F3148883F3108883F3118813
:109A800083F31388C2F308023AB984F308884FF0CD
:109A9000FF339E46084709B030BD4FF0FF35203CEC
:109AA000CDE90033CDE90233CDE9055104932022FD
:109AB0004FF0807369462046079303F0F3F884F370
:109AC0000888AE466FF006031847E4E700800700F9
:109AD0002DE9F743104C1E4623680546D3F8109035
:109AE000884617460146002301222046C84778B918
:109AF0004FF4DC724146304603F0D4F823680097F7
:109B0000DF6832464FF4DC7329462046B84700B17F
:109B1000032003B0BDE8F0834C58002070B50388E3
:109B2000232B8AB0044635D80F2B04D8012B00F024
:109B30001A810AB070BD103B132BFAD801A252F85B
:109B400023F000BFC59B0700E39B0700339B070082
:109B5000019D0700779E0700339B0700339B07009A
:109B6000339B0700339B0700339B0700859E07004C
:109B7000339B0700339B0700339B0700339B070091
:109B8000359D0700339B0700439D0700339B07006B
:109B9000F19C0700503B9AB2062ACAD8062BC8D8B7
:109BA00001A252F823F000BF0D9C0700739D07002F
:109BB000859E0700339B0700339B0700B59C070079
:109BC000539D0700B34B82881A80B34AD2F8BC2455
:109BD0001C460AB101209047B0492088FEF7A0FD3D
:109BE000A7E7AC4BAC4C4FF6FF721A80D4F8A02418
:109BF000510704D4FEF79CFD08B1FFF755F9D4F8DE
:109C0000BC34002B95D00220984792E7A24EE28800
:109C1000B6F860329A428CD1002504A88DF8105015
:109C2000FEF766FBD6F8942406F598639A4212D99B
:109C3000511EC6F8941412F8012C994BF42502FB1E
:109C4000053506F2D14396F898245B1ADBB29A42A6
:109C500038BF86F898349DF81000FFF769FC002D96
:109C60003FF467AF228A04F11201284603F01AF884
:109C70001822002104A803F023F808238DF81030DF
:109C8000884B0593884B0693884BCDE90735238A8B
:109C9000ADF82430B6F8B834172B03D82846FFF7B0
:109CA0005DFC46E7824904A8FFF77AFE00283FF4EE
:109CB00040AFF3E7E188F62918D8CB1E9A070DD0FC
:109CC000CB1F9BB2013B5A4202F0030203F0030395
:109CD00001F1FF3158BF5342C91A89B26D4B188840
:109CE000FEF75FFC00283FF424AF86E7F721F5E795
:109CF000002202A98088CDE90222FEF701FDF1E7EA
:109D00000023ADF812300223ADF8103001AB0593FB
:109D1000604B1C8804AA42F605212046FEF7EAFCA7
:109D2000034600287FF469AF024685212046FEF7EE
:109D3000EDFCD7E7574B00F108011888FEF7F0FC5F
:109D4000D0E7002369468088ADF80030FEF7DAFCE2
:109D5000C8E7A379002B7FF4ECAE4E4B1321188893
:109D6000FEF7DCFCBEE74B4B00211888FEF715FC24
:109D7000B8E7A379002B3FF4DCAE022B7FF4D9AE19
:109D800045492089B1F8682290420D467FF4D1AE52
:109D9000A27B012A7FF4CDAE0022CDE90422ADF8EA
:109DA00008308DF8103001AB01200393394B8DF84A
:109DB0001600208A1E88ADF81800608AADF81A00D7
:109DC00004F114000790ADF80A20B1F86C1202AA51
:109DD0003046FEF78FFC60B99DF80430DB0708D4ED
:109DE00040F2FD1304A93046ADF81430FEF7DDFB58
:109DF0009FE6002304A93046ADF81430FEF7D5FBEA
:109E0000014600287FF495AE182204A802F058FFFE
:109E1000237D244A0592022B234A8DF810300692A6
:109E200020D0062B0ED0012B0ED12248FEF78AFB44
:109E3000B5F87232A5F87032637D0893D4F8163005
:109E4000099301E0637D0893069B002B3FF471AEFC
:109E5000B5F8B834172B7FF66CAE154904A8FFF798
:109E60009FFD66E6A27D637D43EA0223A5F8723278
:109E7000A5F87032E8E700231A4619468088FEF7F5
:109E800043FC2FE70023A0881A461946FEF78BFBF8
:109E900028E700BFB857002080580020FACE0700FE
:109EA0006C670020DC5A0020F58507009D950700AF
:109EB000ADAB070028D1070008B510461A4602F0DE
:109EC000F1FE002008BD08B510461A4602F0EAFE71
:109ED000002008BD2DE9F0411C4C1D4BD4F8D424C2
:109EE0009A429AB007462BD1D4F8D8345A79202A0E
:109EF00029D19B689847D4F8D88498F80550BD427A
:109F000028BF3D4606462A4604F21C5102A8FFF728
:109F100019F898F8052004F23C510AA8FFF71DF83B
:109F200000960AAB2A4602A904F2DC4002F0F6FCD5
:109F3000002848F2425018BF00201AB0BDE8F08156
:109F400048F24050F9E748F21150F6E780580020F7
:109F50007052464D70B54FF4DC72044608480D4609
:109F600002F092FE20B954B12346BDE87040184774
:109F700022462946034B0248BDE87040A8E570BD63
:109F800000E00700FC5D0020042870B5154D044674
:109F900014D8022815D9144E327C4FF480339340E4
:109FA000124AC2F80833FEF7DDFE3046104B40F887
:109FB000043F4FF47011FEF7A1FE02E0831F012B56
:109FC00006D9D5F834375BB12046BDE87040184754
:109FD00000230849084885F89B32FFF7BBFFF0E7EC
:109FE00070BD00BF80580020B857002000400240DC
:109FF000FD9F070000F00700CD8E0700034B0449CA
:10A000000448002283F89B22A4E700BF8058002068
:10A0100000F00700CD8E070030B51A4BD3F8CC20E6
:10A02000D3F8C450D3F8E840AC2A85B00DD1D3F8AA
:10A03000D43015481C44ED1A2A46A4F5804102F09C
:10A0400023FE30B9002005B030BD14B9FEF76AFA1E
:10A0500004460D482A46214602F016FE0028F1D09B
:10A060000A4BD3F800340BB1FEF726FE1022002174
:10A07000684602F025FEAD08684601940295FEF799
:10A0800083FAE0E7805800200080070000000140CC
:10A0900010B50D4C0022582104F1A400FFF7EEF991
:10A0A00021464FF4DC7241F8A00F084802F0ECFDA5
:10A0B00040B104F5E76304F1A0010448BDE8104095
:10A0C000002205E510BD00BF8058002000F0070009
:10A0D00038B50546FFF7DCFF044618B902492846A3
:10A0E000FFF738FF204638BD205900202DE9F04FFA
:10A0F00002F6FF7687B0330B03932C4B0493144680
:10A1000093F89A22A1EB000805460F464FEA183B48
:10A110000AB9FEF76DFEBBF1080F28BF4FF0080B20
:10A120004FEA0B33DFF8889005930CB9224639E0EB
:10A13000039B1F489B4528BF9A46D9F8003038BF7B
:10A14000DDF814801B6938BFDA461E4652464FF0D0
:10A150000003294628BFA046B047024610BBD9F8E5
:10A1600000100090CA6808F10303164623F00303A9
:10A170003A4629464846B047024698B9039B049A96
:10A18000A3EB0A030393049BD3F8D0304344C2F8F3
:10A19000D030FFF79DFFA4EB080445444744024636
:10A1A0000028C2D0104607B0BDE8F08F80580020CC
:10A1B0004C58002008B5164B42F20402D3F8E810C0
:10A1C000885802F1A34202F5471202F2D752904298
:10A1D00019D1D3E93402904217D0B1F5805F03D191
:10A1E000BDE80840002073E7121A02F6FF7222F45D
:10A1F0007F62014422F00F0200F58050FFF776FFE6
:10A200000028EDD008BD0320FCE70020FAE700BFDE
:10A210008058002008B50C22002102F051FD024BAD
:10A220000022C3F8D02008BD805800202DE9F04757
:10A23000794D7A4C90B006460027641B1423B4FB7A
:10A24000F3F4A74233D1764C1822002102A802F081
:10A2500037FD0423D4F8909A8DF80830D4F8F03004
:10A260004B4540F0D18094F88C29D4F86C8A04F6E0
:10A27000F80304F69415002A08BF1D464FF0200A83
:10A28000524605F16F010DEB0A00CDF804A0FEF770
:10A2900059FE01AB04F5276249464046FEF79CF89B
:10A2A0000746D0B117255F48FFF7B4FF2DE02B68B4
:10A2B00013B901371435C4E7DB69284698470028ED
:10A2C000F7D0574BB3F8B834172B03D9564930465B
:10A2D000FFF766FB10B0BDE8F087524608A904F509
:10A2E000276002F0D1FC0028DCD195F855306BBB1B
:10A2F0000122C4F8C0306B68C4F8CC20C4F8A83080
:10A30000D4F8E830C4E931930125202200214748E0
:10A3100002F0D6FCF422FF21454802F0D1FC0A2DC0
:10A3200088BF0B3D4FF00003C4F8D030C4F8E8807C
:10A3300084BF84F874520B2502A8D6E901138DF866
:10A34000095098473B48FFF7C3FEC3E703F0020AF2
:10A35000DB0753D542F2040358F8031003F1A3437B
:10A3600003F5471303F2D75399424BD1AB6D03F575
:10A37000FF5203F6FF731F32C3F30B03D31A42F2EB
:10A38000080258F802209A423CD343F204031B68A7
:10A390008B421AD14FF440531B78142B81BF43F2E8
:10A3A0001403254A1B68B3FBF2F308F5005298BF6B
:10A3B00000231278142A81BF42F214021E4858F872
:10A3C0000270B7FBF0F7BB4212D0BAF1000F19D000
:10A3D0001A48FFF71FFFAC23C4F8CC30AB6DC4F8AC
:10A3E000D430BAF1000F8BD06B68C4F8AC3087E77B
:10A3F000BAF1000F14BFAC23A523EDE7AA23C4F8DC
:10A40000CC30EEE705254EE701238DF8093002A890
:10A41000D6E9011398475DE74C58002060580020AA
:10A4200080580020445900202DA2070058590020D0
:10A430007C5900207985070040420F0038590020E0
:10A44000F8B513681F2B04460D46164664D900293B
:10A4500065D0836CC11800F10807372B4FF08000DE
:10A4600003F10102087247D80933234404F1400282
:10A4700000219A423DD1D4E91423A06C0821E1FBCC
:10A480000023104612BA62641A0A194684F843304F
:10A4900084F842201A0C1B0EC4E9140184F84030E1
:10A4A000394684F841203846FEF79CFD691E182382
:10A4B000A26DDA4001F8012FE26DDA400A71226ED6
:10A4C000DA400A72626EDA400A73A26EDA400A74E7
:10A4D000E26EDA400A75226FDA400A76626FDA407D
:10A4E000083B13F1080F0A77E2D1202333600020E4
:10A4F000F8BD03F8011BBCE7E31D00213F2A08D982
:10A5000039463846FEF76EFD3822002102F0D8FBAE
:10A51000B1E701329954F1E748F21450E8E70E2010
:10A52000E6E730B54268527802F00F01082987B09B
:10A5300003460FD103691C6800250CB907B030BD74
:10A54000214625736846FEF78DF96846FFF7E9FF57
:10A55000A468F2E712F0C00120D102F03000102808
:10A560000ED15A6911705A6818695378946803F0CB
:10A570000F03072B09D10146204600F017F8DDE74D
:10A580009006F0D55B691970D8E71279214614B1AD
:10A5900002F088FBD2E702F093FBCFE78029CDD110
:10A5A0000069002192060160C8D5EBE77FB5002362
:10A5B000CDE902318378194490F9033004911944AC
:10A5C00003780591CDE900003BB16846FFF7A9FF8C
:10A5D0006846FEF72BFB0028F7D107B05DF804FBB7
:10A5E0002DE9F04357687B7813F0C00489B0064624
:10A5F0008C46154603D0402C6CD000240EE06149F7
:10A6000003F00F0201EB820103F03003202BD1F89D
:10A61000F48126D006D8CBB1102B1CD0204609B02F
:10A62000BDE8F083302BF9D16B6939781970072AAE
:10A630000AD16B6828691A79214602F041FB6B68E0
:10A6400029699868FFF7B2FF2A6940E02A6939460C
:10A65000C0470446E2E76B6901221A702A696968FB
:10A66000F6E7BCF1020FD5F8149024D1042A22D8C1
:10A6700004A9FEF718FA04460028BED0069B2BB1A9
:10A68000696899F800304A799A4205D8059B736049
:10A69000069B002BC2D0B0E708792A6900FB032291
:10A6A00004A8C04728B199F80030013389F8003078
:10A6B000E4E70446EAE799F800307A799A429CD9AF
:10A6C0002A693979581C89F8000001FB032269685E
:10A6D0003046BDE7D2F81080474657F8043B13B91F
:10A6E000FEF77EFAB5E7022914D104A9FEF7DBF9DB
:10A6F000002882D0D8F8003069683A4604A8984704
:10A70000044600283FF479AF069B002BF2D1059B4D
:10A71000736083E7012925D005292BD000297FF418
:10A720006CAF0C460DF1040901340B2C3FF465AFFE
:10A73000012249463046FEF7CEF900283FF45DAFCE
:10A7400019F9013B002BEFDB0F4B049301ABCDE973
:10A75000053400230793D8F8003069683A4604A806
:10A76000984776E7082201A9FEF7B5F908240028E2
:10A77000EAD142E704220DEB0201FEF7ACF9042412
:10A78000F5E700BF10CD0700B58407002DE9F04FB5
:10A790008B788FB00025CDE904521A4491F903302B
:10A7A0000692CDE90055CDE902111A4404460792FC
:10A7B0004FF00108A3682BBBDDE9033402A85D78E4
:10A7C000FEF734FA0028F7D115F0300F03D1039BC0
:10A7D0001B7803B10134002C65D063090022934239
:10A7E0005BD10EAA02EB830304F01F044FF0FF308D
:10A7F000C4F1200420FA04F453F8380C231A584208
:10A80000584108E008A92046FEF710F930B9A368BE
:10A81000002BD1D000200FB0BDE8F08F089EDDF8EE
:10A820000CA0002EC8D0F70806F00706039B1A7884
:10A83000974204D15B7803F00F02082A58D102A88E
:10A84000FEF7F4F9DDF80C90CA45EFD1BD420DD802
:10A85000039A537803F00F03082B29D002A8FEF7C0
:10A86000E5F9039B9945F3D14FF0FF35314620467A
:10A87000FEF7B6F900289DD1CCE79B681B789F4274
:10A8800033D1494608A8FDF7EDFF89F80C8008AAE6
:10A8900031462046FFF7A4FE25E05DF82210013185
:10A8A000B8D101329BE70120B5E79A45DED081E7B8
:10A8B0001578BD42DAD8069BD4F808A0D3F80090EA
:10A8C000A368B9F1000FF0D09A457FF473AFD9F8BF
:10A8D0000030D3F800B0BBF1000FCED033463A467B
:10A8E00049462046D847002894D0D9F80890E7E791
:10A8F00013F0300F0FD1049B3F2B0CD85A090EA92F
:10A9000001EB820203F01F0352F8381C08FA03F32C
:10A910000B4342F8383CD4F80C90B9F1000F04D046
:10A9200002AB324639462046C84702AA3146204685
:10A93000FFF756FE9EE738B5104C114AD4F8D830D0
:10A94000104DC4F8942A04F1FC02C4F8982AC4F803
:10A950009C3A04F50F620C4BC4F8A03A1146002350
:10A960002846C4E92633FFF721FE04F50F62294685
:10A9700004F69420BDE8384008E700BF8058002066
:10A98000B584070028CF0700D1840700F7B57C4CB9
:10A99000D4E936329A42264640F0EC8094F8A43A44
:10A9A00053B1FDF7BFFDD4F8C430C4F86C0AC4F845
:10A9B000903A012003B0F0BDFFF7BDFF002845D05D
:10A9C00094F88C591DB994F8F038002B3ED0002330
:10A9D000C6F86C3AC6F8903A4DB16A4D96F8283AE6
:10A9E000A5F199042022019225B91320E2E7664CD3
:10A9F0002B46F7E79BBBD6E92601644A01ABFDF77E
:10AA0000EBFC50BB2A78402A27D1691C604802F031
:10AA100049F95F4B102203F11F0118780D7803F8F4
:10AA2000015B013A01F80109F7D15A4B102203F1F9
:10AA30001F0118780D7803F8015B013A01F801094C
:10AA4000F7D10198FFF746FA054608B10520B1E7AE
:10AA500094F858302BB90F20ACE70A20AAE716204B
:10AA6000A8E794F85930032BF5D894F87120032AFD
:10AA700040F08280227B002AEDD02269342A7DD1E9
:10AA800043F20401227D08684349884227D1F2B18C
:10AA9000A169E1B104F11400002143F20C0CCFB222
:10AAA000BA4201D8122085E7BCF8007050F804EFD4
:10AAB000BE4501F10101F2D12279DAB1012B1BD996
:10AAC000A168D6F8AC20914216D8102072E7002B6E
:10AAD000F2D05A1E18BF0122002AEDD1E2E712B1CE
:10AAE000A269002ADED1012B0CBF2279012202F0DB
:10AAF0000102F1E7012BAED8012286F8A42A1BBB84
:10AB000094F8682032B3E56E002DA4D0C6F8905AB0
:10AB1000FDF708FD2149081A854207D9FDF7ECFC2D
:10AB2000081A854222D81E48FFF774FB00231D48EF
:10AB30000124C6E92C34FFF76DFBC6F8C450FDF7BD
:10AB4000F1FCC6F86C0A34E7DA0703D594F85A200A
:10AB500002B1E56D9B07D7D594F86030002BD3D0B8
:10AB6000114B626EC3F5FC239A4201D9042021E700
:10AB70001544C9E708201DE714201BE7112019E739
:10AB800080580020A9620020746100209C5D002094
:10AB9000BC5D0020DC5D0020DBE5B151005007000A
:10ABA0003859002044590020008007002DE9F04169
:10ABB000044688B01822002102A802F081F8257806
:10ABC0008DF8085001238DF809300C2D00F2DF813B
:10ABD000DFE815F0760083001F0083008300DD01AD
:10ABE00083007900830075000D002D007D004FF07B
:10ABF0008053D3F800210392D3F804210492D3F8B0
:10AC00000C2192020692D3F81021920205921B6940
:10AC10000793D4E9011302A898479DF80930012B46
:10AC200000F0A781BD4B0520D3F85832A0E143F2D4
:10AC30000403BA491D68D1F8C020B948854214BF41
:10AC400001230223012A227C08BF01335AB90223BF
:10AC50008DF80C30D1F8AC300493B24B0593C3F5AA
:10AC6000FC230693D5E7012A14D1854212D1002393
:10AC70004FF440528DF80C301278142A84BF43F2FE
:10AC800014031B6804934FF48053059343F20803A5
:10AC90001B68E6E79A420BD201238DF80C30D1F8FD
:10ACA000A8300493FDF728FCD1F8B8300590D8E718
:10ACB000FF238DF80C300023CDE90433D1E7237C4A
:10ACC0008DF80C30A5E7238AADF80C30A1E7934B43
:10ACD0000720D3F8583298479BE7062D924B01D0B6
:10ACE000012D02D1226983F8242093F82460012EDB
:10ACF00006D0022E00F08A80002283F82420D6E0BD
:10AD00006B1E072B85D801A252F823F02DAD07004A
:10AD100013AC0700FDAD0700C5AD070013AC07007D
:10AD2000F7AD070013AC070067AD07007B4E0320AB
:10AD3000D6F85832984767698FB1B7F5807F10D839
:10AD40000021202206F1D80086F8A41AC6F8D010F7
:10AD500001F0B6FFC6F8D8708DF8095059E7032501
:10AD6000FAE70425F8E76D4DA78AD5F8DC00D5F899
:10AD7000D8303A189A4223D8D4F8108028443A465A
:10AD80004146FC3001F08EFFD5F8DC3005F1E002E1
:10AD90003B4439464046C5F8DC30FEF76FFBC5F84A
:10ADA000E000D5F8DC300393D5F8E0300493E36895
:10ADB0008DF80960002B3FF42CAF2069984728E7F5
:10ADC0000326EEE7FFF7E2FD0A2807D9534B0B38BD
:10ADD00083F874020B238DF809301AE701288DF8E7
:10ADE00009007FF416AF0020FFF772F900283FF446
:10ADF00010AF0A23EFE74FF480730593474BD3F866
:10AE0000DC20D3F8E0300392049302E7013D072DE4
:10AE10003FF6FFAE01A353F825F000BF3DAE07009B
:10AE200013AC070031AF070041AF070013AC0700B8
:10AE300079AF070013AC0700B3AE0700374B93F8A8
:10AE4000A42A0AB90823C6E762690AB90323C2E73C
:10AE5000C2F30B0131B1D3F8F410D3F8900A1144C6
:10AE60008142F3D1B2F5805F01D90423B3E7D3F86F
:10AE7000F410D3F8900A55188542E3D8C3F8E420BB
:10AE8000D3F8EC20C3F8F010C3F8D010C3F8E820D2
:10AE900026486269D3F86C6A036802F6FF721D697E
:10AEA000120B00233144A84700283FF4B2AE05231B
:10AEB00091E71A4D95F8A43A002BC3D0D5E93C216F
:10AEC000A38A521AD5F8E4101A448A42BED8174809
:10AED000D5F8D0600268D5F86C1AE7680097D76893
:10AEE00022693144B84708B1E36866E7A28AD5F819
:10AEF000D0301344C5F8D030A68AD5F8F0301E44BF
:10AF0000C5F8F060A18A206905F1E802FEF7B6FAFB
:10AF1000CDE90360C5F8E8007BE600BF805800205B
:10AF2000DBE5B15100800700B85700204C580020E5
:10AF3000184BD3F8E820D3F8F0300492039368E676
:10AF4000144DD5E93C23D5F8E410D31A8B427FF495
:10AF500079AFD5F8E830C5F8EC3000212046C5F8C7
:10AF6000E410C5F8F420FFF761F9D5F85832042051
:10AF7000984708B0BDE8F081064BD3F8E820D3F835
:10AF8000F03003934FF480530492059341E602237B
:10AF900021E700BF8058002070B586B08E6801920E
:10AFA0000D4602A90446FDF77EFD90B1A86880B168
:10AFB0006B78019A03F03003202B04D11146304600
:10AFC000FFF7F4FA019A314602A8FFF7DFFB039B73
:10AFD000636006B070BD2DE9F347824601A80D46B7
:10AFE00016461F46FDF7C2F910B3124BBDF8048098
:10AFF000D3F80C9019EB08041AD01C22002120462B
:10B0000001F05EFE0123237149F808A0BDF8042079
:10B01000BDF80630A7602D0B9A42E560666101D14C
:10B02000FDF78CF9FEF76AFC002002B0BDE8F0875E
:10B030000420FAE7805800202DE9F347824601A852
:10B040000F4616461D46FDF791F918B3124BBDF891
:10B050000480D3F80C9019EB08041BD01C220021AB
:10B06000204601F02DFE0023237149F808A00A9B19
:10B07000BDF80420A360BDF8063065619A42C4E9BA
:10B08000036701D1FDF75AF9FEF738FC002002B042
:10B09000BDE8F0870420FAE78058002013B5134C70
:10B0A0001422002104F5287001F00AFE04F10C03BB
:10B0B00053E8021FD888B1EB314F4FF0000217BFA1
:10B0C00089B240EA004041EA004004E05968B1EB2F
:10B0D000314F08BF012243E802010029E8D18DF871
:10B0E00007209DF80730002002B010BD80580020D6
:10B0F0002DE9F043BC4DD5F8A034DA0795B000F146
:10B10000708105F59863C5F89434C5F8BC04112323
:10B11000013BDBB2FF2B40F058810023CDE90E3319
:10B1200085F89834089310930DA802230D93FDF72A
:10B130002BFA0446002840F04481AC48FDF72BFA76
:10B140000446002840F03D81FEF79AFA04460028A4
:10B1500040F03781A64B089301460C220DA801F060
:10B16000AFFD01260623089AADF838300DA920203E
:10B170008DF834608DF83660FDF772F921460C22A7
:10B180000DA801F09DFD089AADF836400DA94020AC
:10B190008DF83560FDF764F921460C220DA801F009
:10B1A0008FFDF723089AADF836300DA923208DF8CE
:10B1B0003460FDF755F921460C220DA801F080FD01
:10B1C000089A8DF834600DA93046FDF749F92146FB
:10B1D0000C220DA801F074FD4FF4B063089A0D9392
:10B1E0000DA9A120FDF73CF921460C220DA801F084
:10B1F00067FD9DF83430089A64F300030DA9A02080
:10B200008DF83430FDF72CF908A8FDF72BF904462A
:10B21000002840F0D68002461821764885F89C62C6
:10B22000FEF72CF97449D1F89C3198420BD1734840
:10B230001C2201F5CE7101F035FDD5F8A03443F0A4
:10B240000203C5F8A03411230DA88DF82030FDF7B6
:10B25000C7FA0446002840F0B4809DF835300DA8A8
:10B2600001338DF83530FDF7BDFA0446002840F073
:10B27000A880D5F8A0349B0740F1AE80D5F8C00A6D
:10B280005F4982B208A8FDF745FA0446002840F05D
:10B2900098805C48FDF740FA0446002840F0918011
:10B2A000594B4FF6FF721A8001204FF65963574AE7
:10B2B0008DF80A0002A9ADF80830FDF71FFA044620
:10B2C00000287ED1524B04AA03F1100716461868D5
:10B2D0005968144603C40833BB422246F7D14D498E
:10B2E0003046FDF75CF9044600286AD101461C226D
:10B2F0000DA801F0E5FC9DF83430B5F85C02ADF81E
:10B30000044043F004038DF834300223ADF80C30D0
:10B3100095F85E328DF80E3004F0F80343F0030325
:10B320008DF80630F423CDE90A4401AEADF82C3097
:10B330004FF01109384B0C9403AF08AA0DA9CDE9C1
:10B3400008768DF80590FDF7D7F9A0460446C0BBF6
:10B3500001461C220DA801F0B3FC9DF83430B5F86D
:10B360005C02ADF8044023F0180343F018038DF895
:10B3700034300123ADF80C3095F85E328DF80E3084
:10B3800008F0E8081723CDE90A4448F01308ADF89F
:10B390002C3008AA214B0C940DA9CDE908768DF824
:10B3A00005908DF80680FDF7A7F9044648B9FDF72A
:10B3B000BFF9044628B9D5F8A03443F00103C5F815
:10B3C000A034204615B0BDE8F083D5F89424511C74
:10B3D000C5F8941413709BE6114801F079FC1049EC
:10B3E0004FE70024EDE700BF8058002000800700F1
:10B3F000B8570020A0F1070000F0070028630020E4
:10B400002C630020FACE0700B8570020DC5A002039
:10B410004CCF0700DE5A0020E05A0020E85A0020F6
:10B42000FCCC070007B50A4B0A4A00930A4B93422B
:10B4300008BF00230193019B13B903B05DF804FB1F
:10B44000D3E9002090476846FDF790FEF3E700BF80
:10B450005CCF070068D1070058D107001EF0040F29
:10B460000CBFEFF30880EFF3098000F001B800BFD4
:10B4700070B5144B144A0C21D21AB2FBF1F2816957
:10B4800011F8025C044635B900690021914205D1EA
:10B49000012323600EE04FF0FF30F6E71E68AE4256
:10B4A0000CD1461C07D19D68D4E90001D4E90223E0
:10B4B000A847206070BD5E688642F4D001310C332D
:10B4C000E4E700BF30D107003CD10700044B002265
:10B4D00082B01A601B680193019B02B0704700BFE5
:10B4E0000001014013B52A4B1A6852B12949D1F81D
:10B4F000C42A0132C1F8C42A00221A601B680093D2
:10B50000009B254B1A68A2B100221A6023481B68D1
:10B51000027C0193019B4FF480339340204AC2F890
:10B5200008338168044611BBC168E1B9636803B19F
:10B5300098471C4B1A684AB300221A6017481B68C8
:10B5400090F820200193019B4FF480339340144ADC
:10B55000C2F808338169044669B1143002B0BDE80D
:10B560001040FDF7CBBB0430FDF7C8FBDEE704302D
:10B57000FDF7C4FBDDE7C16911B11430FDF7BEFB77
:10B5800063691BB102B0BDE81040184702B010BD9E
:10B59000044102408058002040410240B85700203A
:10B5A000004002404441024008B5FEF7BFF928B10F
:10B5B000784B794A1B68C3F304231360FEF7D6F96E
:10B5C00010B1764B764A1A60FEF7B0F928B1754B88
:10B5D000754A1B68C3F342331360FEF7C7F920B105
:10B5E000724AD36823F08073D360FEF79FF940B1AD
:10B5F0004FF080430022C3F80C21C3F81021C3F898
:10B600003825FEF7B3F910B1694B03221A60FEF733
:10B61000ADF940B1674B05221A6001229A670022FA
:10B620009A603F225A60644B1B78062B50D1634BC3
:10B630001B6819074CD1624B1B6803F0F003502BB9
:10B6400046D14FF080525F4BD2F80414C3F8201556
:10B65000D2F80814C3F82415D2F80C14C3F828152E
:10B66000D2F81014C3F82C15D2F81414C3F83015FE
:10B67000D2F81814C3F83415D2F81C14C3F84015C6
:10B68000D2F82014C3F84415D2F82414C3F848158E
:10B69000D2F82814C3F84C15D2F82C14C3F850155E
:10B6A000D2F83014C3F85415D2F83414C3F8601526
:10B6B000D2F83814C3F86415D2F83C14C3F86815EE
:10B6C000D2F84014C3F86C15D2F84424C3F870259E
:10B6D000FEF72CF928B13C4B3C4A1B6803F04F03A2
:10B6E0001360FEF723F948B14FF08043D3F80024EC
:10B6F000D20744BF6FF00102C3F80024344B1B682B
:10B70000062B08D1334B1B68062B01BF324A136846
:10B7100043F480631360314AD2F8883043F47003F5
:10B72000C2F88830BFF34F8FBFF36F8F4FF01023F5
:10B73000D3F80022002A03DBD3F80432002B24DAEA
:10B74000274B0122C3F80425D3F80024002AFBD09C
:10B750004FF010221521C2F80012D3F80024002A5D
:10B76000FBD04FF010231522C3F804221C4B1A46BD
:10B77000D3F800140029FBD00021C3F80415D2F837
:10B780000034002BFBD0FDF78FFB164B164A9A6254
:10B7900008BD00BF240300104035014074C00740BD
:10B7A0000DF0ADBA440200103C050040F0ED00E0A1
:10B7B000A005004010560040E00F00F0E40F00F03C
:10B7C000E80F00F000C0004058020010E40E0040F6
:10B7D00030010010340100103C17004000ED00E083
:10B7E00000E00140B85700200090D0032DE9F0435D
:10B7F0004FF4805191B00020FDF728FB08B1FDF710
:10B8000053FBC948C0F5FC21C1F30B03002BF6D153
:10B81000B0F5FE2FF3D8FDF719FB01460028EED155
:10B82000C24AC34CC34BC4F834371046C24B1360F2
:10B83000FDF71DFE054690460028E0D1BF4806688A
:10B84000721C70D02A4658210430FDF717FE331AB7
:10B850005E425E41BA4FD7F80090B9F1FF3F00F069
:10B86000E28100225821381DFDF708FE814540F095
:10B87000DA8186B1B3495422381D01F005FAB24984
:10B8800006464FF4807207F15C0001F0FDF950EAC2
:10B89000060300F0CB81AA49AC484FF4DC7201F0FA
:10B8A00001FAFEF7F5FB0028A9D1D4F8CC30AA2B79
:10B8B00000F0198143D8012B4BD0A52B00F00F814C
:10B8C000D4F8C030012B40F01981D4F8BC3023B13A
:10B8D000FDF71CFE002800F011814FF08043D3F8E3
:10B8E0001C3513F0B10F40F00981D4F8FC31D4F8C5
:10B8F0003C221340013340F0808100238F4994485B
:10B9000084F89B32FEF726FB924B4FF0FF32C3F8D0
:10B910008020C3F880214FF000534FF480521A600A
:10B92000FEF792F86BE72E4694E788484FF4DC72F6
:10B93000314601F0C5F90123C4F8A430B1E7AC2BBE
:10B94000BED1FEF737FC002840F0CB80FEF764FB49
:10B95000C7E0D4F8E810D4F8C460FCF7CDFD81420C
:10B9600040F05681FCF7C8FD00223146FDF786FD08
:10B97000D4F8C830984202BF0123C4E92F03C4F8A9
:10B98000B86000267448FEF745FC0023734884F82D
:10B990009832FEF79DFB00287FF431AF002E00F0B7
:10B9A000A580D4F8C030012B40F0A080D4F8BC3082
:10B9B00023B1FDF7ABFD002800F098804FF4A026DE
:10B9C00094F89A320BB9FDF713FA654BC4F8B0340A
:10B9D00003F58473C4F8B434002384F8AD3484F8D8
:10B9E000AC341823A4F8B8342023A4F8AE344FF0B4
:10B9F00080435C4FD3F81C25DFF89C9112F0B10F07
:10BA00001EBFD3F81C2502F04E02C3F81C253A7C59
:10BA10004FF480339340544AC2F80833FDF7A2F93B
:10BA20003846524B40F8043F3146FDF767F9504F16
:10BA3000504B514EC4F894320020FCF7D5FEF61B53
:10BA4000F608AE425DD14D4B3848C8F800300021B1
:10BA5000FDF74CFC054600287FF4D1AED4F8D83071
:10BA6000002B57D10023464F464E84F8A43AF61BCC
:10BA70000122F60884F8E82EAE4240F093800223BB
:10BA800084F8E83E404920226846FDF766FA002324
:10BA9000C4F8D4343D483E4BC4F8D834202269461B
:10BAA000FDF75BFA3B4BC4F8D43494F8A43A002B6E
:10BAB00040F08080384BC4F85832384D002384F869
:10BAC0007432D5F800340BB1FDF7F6F894F8AC24D5
:10BAD00094F8AD349A4273D1FDF7E4F9F1E7FEF73B
:10BAE00069FB01264EE7FEF797FA4AE70023134960
:10BAF0002B4884F89B32FEF72DFA80E64FF470163F
:10BB00005EE757F835304846984700287FF477AE0F
:10BB1000013596E7FEF70FFF0028A3D0D4F8C43014
:10BB2000003B18BF01239EE7008007004C5800200F
:10BB300080580020D98E070068CF070000F007006A
:10BB400000E0070004F007005CF007002059002027
:10BB5000978E070000E100E044590020EF8C0700B9
:10BB600048630020B857002000400240FD9F0700B6
:10BB700028D10700899F070030D10700D4CF0700E4
:10BB800028D1070028D1070088CF07005C5D00207E
:10BB9000C8CF07007052464DE987070000000140FA
:10BBA000CD8E070057F83530984700287FF46AAFEC
:10BBB000013561E7FEF7EAFE01283FF47BAF1EE6A0
:10BBC00094F8AC34D4F8B024B4F8B864D4F8B4041D
:10BBD00002EBC30103FB060052F83320898890472B
:10BBE00094F8AC24B4F8AE14D3B2914286BF0133BA
:10BBF000DBB2002384F8AC3468E74FF4FE20FDF795
:10BC0000D9F90E4957224FF4FE20FDF7B1F974E639
:10BC1000D4F8D030F21A19441844FEF767FA002815
:10BC20007FF4AFAE9EE6002E3FF47FAE044903489A
:10BC30004FF4DC7201F036F837E600BF20590020DF
:10BC400000F007008B1802448B4200D1704713F8B4
:10BC5000010D02F8010DF7E70000000000000000F0
:10BC6000C3F10803DB0070B501330446002003A5CF
:10BC70005B1920C940CAAD1920C4184720C940CA61
:10BC8000754120C420C940CA754120C420C940CA9A
:10BC9000754120C420C940CA754120C420C940CA8A
:10BCA000754120C420C940CA754120C420C940CA7A
:10BCB000754120C4404170BD00000000000000003C
:10BCC000C3F10803DB0070B50133002403A500BFF6
:10BCD0005B1920C940CAAD1B20C0184720C940CA03
:10BCE000B54120C020C940CAB54120C020C940CAC2
:10BCF000B54120C020C940CAB54120C020C940CAB2
:10BD0000B54120C020C940CAB54120C020C940CAA1
:10BD1000B54120C06441B4FA84F0400970BD00BF51
:10BD20002DE9F04F08B4F8CA04B451F8042BA3FB72
:10BD3000028940F8048B4FF0000AE4FB629A4FF04E
:10BD4000000BE5FB62AB4FF0000CE6FB62BC4FF072
:10BD5000000EE7FB62CE51F8042B4FF00008E3FB26
:10BD6000628940F8048BE4FB629AE5FB62ABE6FB78
:10BD700062BCE7FB62CE51F8042B4FF00008E3FBF6
:10BD8000628940F8048BE4FB629AE5FB62ABE6FB58
:10BD900062BCE7FB62CE51F8042B4FF00008E3FBD6
:10BDA000628940F8048BE4FB629AE5FB62ABE6FB38
:10BDB00062BCE7FB62CE51F8042B4FF00008E3FBB6
:10BDC000628940F8048BE4FB629AE5FB62ABE6FB18
:10BDD00062BCE7FB62CE40F8049B40F804AB40F83D
:10BDE00004BB40F804CB40F804EB0CBC052B00F07E
:10BDF0001E810C68A0F11400A1F11401A2F114023B
:10BE000052F804EB4FF0000550F8046BE4FB6E565B
:10BE100052F804EB50F8047BE4FB6E6752F804EB35
:10BE200050F8048BE4FB6E7852F804EB50F8049B56
:10BE3000E4FB6E8952F804EB50F804ABE4FB6E9A15
:10BE4000A0F1140052F8044B51F804EB4FF0000C31
:10BE5000E4FB6EC540F804CB51F804EBE4FB6E56EE
:10BE600040F8045B51F804EBE4FB6E6740F8046BA8
:10BE700051F804EBE4FB6E7840F8047B51F804EBD6
:10BE8000E4FB6E8940F8048B51F804EBE4FB6E9AF6
:10BE9000A0E80006062B00F0CA800C68A0F118008C
:10BEA000A1F11801A2F1180252F804EB4FF00005BD
:10BEB00050F8046BE4FB6E5652F804EB50F8047B28
:10BEC000E4FB6E6752F804EB50F8048BE4FB6E78E9
:10BED00052F804EB50F8049BE4FB6E8952F804EB33
:10BEE00050F804ABE4FB6E9A52F804EB50F804BB34
:10BEF000E4FB6EABA0F1180052F8044B51F804EBD0
:10BF00004FF0000CE4FB6EC540F804CB51F804EB95
:10BF1000E4FB6E5640F8045B51F804EBE4FB6E67FB
:10BF200040F8046B51F804EBE4FB6E7840F8047BB6
:10BF300051F804EBE4FB6E8940F8048B51F804EBF4
:10BF4000E4FB6E9A40F8049B51F804EBE4FB6EAB03
:10BF5000A0E8000C072B6AD008B40C68A0F11C0004
:10BF6000A1F11C01A2F11C0252F804EB4FF00005F4
:10BF700050F8046BE4FB6E5652F804EB50F8047B67
:10BF8000E4FB6E6752F804EB50F8048BE4FB6E7828
:10BF900052F804EB50F8049BE4FB6E8952F804EB72
:10BFA00050F804ABE4FB6E9A52F804EB50F804BB73
:10BFB000E4FB6EAB52F804EB50F804CBE4FB6EBC30
:10BFC000A0F11C0052F8044B51F804EB4FF00003B1
:10BFD000E4FB6E3540F8043B51F804EBE4FB6E568D
:10BFE00040F8045B51F804EBE4FB6E6740F8046B27
:10BFF00051F804EBE4FB6E7840F8047B51F804EB55
:10C00000E4FB6E8940F8048B51F804EBE4FB6E9A74
:10C0100040F8049B51F804EBE4FB6EAB40F804AB32
:10C0200051F804EBE4FB6EBCA0E8001808BCBDE8C6
:10C03000F08F002310B51C465AB2914200DC10BDAF
:10C0400040F823400133F7E710B500231A465CB2ED
:10C05000A14203DCB2FA82F0400910BD50F823403F
:10C0600001332243F3E74A11012350F8220001F083
:10C070001F0103FA01F108407047013910B549B2B8
:10C08000041D0A06CBB204D4013954F82120002A39
:10C09000F7D001335BB273B103F18042013A50F83B
:10C0A0002220002022B9013B00EB431318B210BD3F
:10C0B00052080130F6E71846F9E710B500235CB2E4
:10C0C000A24200DC10BD51F8234040F82340013368
:10C0D000F5E710B5013A52B2130601D5002010BDA4
:10C0E00050F8224051F822309C4205D802F1FF322C
:10C0F000F2D24FF0FF30F2E70120F0E700EB8101D0
:10C100000023884200D3704751F8042D43EA5203BC
:10C110000B60D307F5E737B51D469DF9183001933D
:10C120000446FFF79DFD019B38B91A462146284673
:10C13000FFF7CFFF0128019B07D02A462146204662
:10C1400003B0BDE83040FFF7BBBD03B030BD37B52D
:10C150001D469DF9183001930446FFF7B1FD019B80
:10C1600038B12A462146204603B0BDE83040FFF7EB
:10C1700077BD03B030BD2DE9F04FB5B004AC9DF9EB
:10C18000F8501E4680462B462046FFF7C9FD24ABDB
:10C1900029463046CDE90234FFF76FFFC0EB85102A
:10C1A00004B2002C2146B8BF04F11F01634241F3E1
:10C1B000471103F01F0314A804F01F0758BF5F4284
:10C1C000FFF737FF002F08B22BDD14AB002203EB83
:10C1D0008001C7F1200E1346AB4217D36B000193C9
:10C1E00014AB03EB85096F1E34AB012603EB870705
:10C1F000002C54DA34AB03EB86062A4656F8C81CEA
:10C200004046FFF75AFF35B0BDE8F08F56F823C01F
:10C210000CFA07F0024341F8042B01332CFA0EF21A
:10C22000DAE714AB2A46314603EB8000FFF745FFFF
:10C23000D4E70FFA82FE5AF8C83C53F82EB034AB5C
:10C2400003EB8202013052F8803C0B44BBEB03034A
:10C2500034BF012200229B4518BF11465CF8C82C50
:10C2600042F82E30019B42B29A42E2DB731A5E42E0
:10C27000294614A85E41FFF741FF34AB03EB850369
:10C28000294653F8802C57F8803C484643EAC2734D
:10C29000013C47F8803C24B2FFF730FFA8E734ABFD
:10C2A0000020C6F1010C014603EB860A03EB8C0C5F
:10C2B000D8E730B51C4691B0054693F90030684682
:10C2C000FFF72EFDD4F8AC3069462846984711B0E8
:10C2D00030BD13460A46FFF7ECBF2DE9F04793F94E
:10C2E000006092B0044689461046314615461F4606
:10C2F000FFF7AAFE002840F091803A46494602A87E
:10C30000FFF7E7FF3B4602AA21460AA8FFF7D1FF45
:10C3100002A908463A46FFF7DCFF3B462A46494653
:10C320004846FFF7C6FF07F104083A462946284663
:10C33000FFF7CFFF43462A46214620460096FFF7E7
:10C34000EAFE43462A46294628460096FFF7E3FEC2
:10C3500043462A46214628460096FFF7F8FE3B460C
:10C360002A4621462046FFF7A4FF4346224621469F
:10C3700028460096FFF7CFFE434600962A46214600
:10C380002046FFF7C8FE2368DB074AD533464246FE
:10C3900021462046FFF764FC314682462046FFF7DF
:10C3A000ADFE06F18043013B54F8232042EACA72F5
:10C3B00044F823203A4621462846FFF78AFF4346A1
:10C3C0000AAA294628460096FFF7C1FE43460AAA54
:10C3D000294628460096FFF7BAFE0AA908464346B2
:10C3E0002A460096FFF7B3FE3B460AAA214620469E
:10C3F000FFF75FFF02AA4346104621460096FFF76B
:10C40000A6FE324629462046FFF757FE49462846F3
:10C41000FFF753FE02A94846FFF74FFE12B0BDE8F2
:10C42000F08731462046FFF769FEC3E72DE9F0416A
:10C4300015468AB004460E461C22002103A800F0CF
:10C440003FFC2F1D95F9008003232A4631462046E4
:10C450000293FFF73EFF3B4602AA21462046CDF855
:10C460000080FFF774FE2B46324621462046FFF738
:10C4700020FFCDF800803B4605F18402214620468E
:10C48000FFF749FE0AB0BDE8F08100002DE9F04257
:10C49000082288B00C468146FFF70FFECB6A039353
:10C4A0000B6B04934B6B05938B6B0693CB6B0793D2
:10C4B000002708236A4669466846CDE90177009758
:10C4C000FFF7CEFB082305466A4649464846FFF774
:10C4D000C7FB236B0393636B0493A36B0593E36B1D
:10C4E0000544CDE906376A46082369466846FFF7E2
:10C4F000B7FB082305446A4649464846FFF7B0FBA8
:10C50000236A0093636A0193A36A0293A36B069361
:10C51000E36B0793054408236A4649464846CDE93C
:10C5200004770397FFF79CFB636A0093A36AA26BEF
:10C530000193E36A02930492636BE26B0393CDE988
:10C540000523236A07932E1808236A46494648465E
:10C55000FFF786FBE36A0093236B0193636B0293FF
:10C56000236A0693A36A0793351808236A46494647
:10C570004846CDE904770397FFF7A2FB236B0093AE
:10C58000636B0193A36B0293E36B0393636A06935C
:10C59000E36A07932E1A08236A4649464846CDE9BE
:10C5A0000477FFF78DFB636B0093A36B0193E36B41
:10C5B0000293236A0393636A0493A36ACDE9053760
:10C5C000236B0793361A08236A4649464846FFF705
:10C5D00077FBA36B0093E36BCDE90137636A0393A9
:10C5E000A36A0493E36ACDE90537636B0793361AB0
:10C5F00008236A4649464846FFF762FB361A0E4C46
:10C600000FD436B9082249462046FFF762FD0128BB
:10C610000FD00823224649464846FFF751FB361AF9
:10C62000EFE70823224649464846FFF719FB36182C
:10C63000F7D408B0BDE8F08274D0070070B5144696
:10C640008AB006460D461A46214602A80193FFF716
:10C6500040FE019B02AA31463046FFF72AFE02A99E
:10C66000019B22460846FFF724FE019B02AA2946A9
:10C670002846FFF71EFE0AB070BD2DE9F0478AB0CC
:10C680001446DDF848A055461F4615F9046B009680
:10C69000804689462B460246214602A8FFF757FDF1
:10C6A00002A952460846FFF714FE534602AA414625
:10C6B0004046FFF7FEFD534602AA21462046FFF7FB
:10C6C000F8FD2B464A46394638460096FFF73FFDAF
:10C6D0005246394602A8FFF7FCFD02A92B46424606
:10C6E00008460096FFF733FD02A92B46224608466E
:10C6F0000096FFF72CFD2B46424621462046009629
:10C70000FFF725FD5346224649464846FFF7D1FD2F
:10C710002B4602AA414620460096FFF718FD5346D5
:10C72000224639463846FFF7C4FD2B464A4639466D
:10C7300038460096FFF70BFD324602A92046FFF768
:10C74000BCFC0AB0BDE8F0872DE9F0479846B3F984
:10C750000230894613F11F0148BF03F13E01DD1D80
:10C7600048BF03F10E05EC104E11944275B228BF7C
:10C77000144629460746FFF75CFC22464946FFF768
:10C7800061FAB8F90230B3EBC40F4FEAC40220D209
:10C79000D21A07EB86010020C2F120068F420FD388
:10C7A00008F124082A4639464046FFF792FC012842
:10C7B0000FD02B4642463846BDE8F047FFF780BA17
:10C7C00051F8044D24FA02F303430B6004FA06F017
:10C7D000E4E7BDE8F08770B5036813F0010605468D
:10C7E000144605D013460A460146FFF739FA0646B5
:10C7F00021462846FFF782FC46B104F18042013A07
:10C8000055F8223043F0004345F8223070BDF0B5B2
:10C810000F46A1B006461946384615461C46FFF796
:10C8200013FC20B13046FFF704FC21B0F0BD2246D6
:10C8300039466846FFF741FC294608A8FFF73DFC4A
:10C8400010A82146FFF7F5FB012318A81093FFF766
:10C85000F0FB224608A96846FFF73BFC28B92246B0
:10C8600010A93046FFF729FCDFE7009BDA0709D45F
:10C8700021466846FFF742FC2246294610A8FFF7EA
:10C88000AAFFE6E7089BDB0707D4214608A8FFF7C5
:10C8900035FC2246294618A8F1E7002823461CDD6E
:10C8A00008AA69466846FFF70BFA21466846FFF773
:10C8B00025FC224618A910A8FFF70BFC002805DA72
:10C8C00010A923462A460846FFF7CAF910A92346AD
:10C8D00018AA0846FFF7F4F9CEE708A96A46084601
:10C8E000FFF7EEF9214608A8FFF708FC224610A939
:10C8F00018A8FFF7EEFB002805DA18A923462A46F8
:10C900000846FFF7ADF918A9234610AA0846FFF715
:10C91000D7F9BEE70048704770D007002DE9F04F07
:10C920002DED028BEDB08946789E05901946B6F93B
:10C93000023096F9004013F11F0748BF03F13E078C
:10C9400047F3471707F1FF3B24AB002543F82B5073
:10C950006CAB03EB8B0307EE902A4CA896F90120F1
:10C9600043F8805C43F8605CFFF76CF996F90120AE
:10C9700054A81144FFF766F921464CA8FFF764FB61
:10C980008046002840F0428154A8FFF75DFB0390E9
:10C99000002840F03D8106F1240A3A464CA9504651
:10C9A000FFF797FB012840F035813A4654A95046DD
:10C9B000FFF78FFB0128069040F02C811CAD3B4611
:10C9C000524654A92846FFF722FF0DF13008039B79
:10C9D00048F82B3017EE902A494640463346FFF779
:10C9E000B3FE4146404653462A460097FFF7C3FB35
:10C9F0000DF5B87B53462A464CA914A80097FFF7BB
:10CA0000BAFB224658460599FFF757FBA300079348
:10CA1000059B0BEB840903EB84014846FFF74DFBB4
:10CA200006F14403194634A80493FFF746FB049B20
:10CA3000A10059183CA8FFF740FB331D08EE903ABF
:10CA4000594634AA28460094FFF781FB4B465A46C4
:10CA50003CA934A80096FFF710FE18EE902A234652
:10CA600029462846FFF7D3FE2A464946584633460C
:10CA7000FFF7E4FD039B0893049B0993059B39464C
:10CA80004046CDE90A3BFFF7F8FA3946834614A839
:10CA9000FFF7F3FA5845B8BF58461FFA80FB0BF171
:10CAA000FF3109B240460491FFF7DDFA0499B0F175
:10CAB000000814A818BF4FF00108FFF7D4FA0028A7
:10CAC00014BF0220002048EA00080DF12009224688
:10CAD00059F8281024A8FFF7F0FA0DF1B009A300C7
:10CAE00019444846FFF7E9FA21462846FFF7A1FA1C
:10CAF000069B2B60ABF1020824AB08EE105A0FFA2C
:10CB000088F80493B8F1000F2ADA18EE902A18EE8C
:10CB1000101A18EE100A2346FFF779FE18EE102AB5
:10CB2000049833464946FFF789FD04993A46504632
:10CB3000FFF7CFFA012805D004993B465246084634
:10CB4000FFF7BEF8013C64B24CAA230653D5039B01
:10CB5000B3FA83F040096DB0BDEC028BBDE8F08FF5
:10CB6000334618EE102A0498D6F8A4504946A84730
:10CB700041460CA8FFF777FA4146B0F1000B14A824
:10CB800018BF4FF0010BFFF76EFA002814BF022008
:10CB900000204BEA000B08AB53F82B1031B32246B0
:10CBA00034A8FFF78AFA079B3CA81944FFF785FAD7
:10CBB00018EE102A33463CA934A8FFF73FFD18EEC3
:10CBC000903A0499009434AA44A8FFF7C0FA049A52
:10CBD00000964B463CA934A8FFF74FFD18EE101AFB
:10CBE00018EE100A334644AAFFF763FB08F1FF383A
:10CBF0000FFA88F886E7049B52F8241053F8243083
:10CC00004B40039919430391013C9EE72846A2E754
:10CC10004046A0E703989EE708B5074B044613B1CA
:10CC20000021AFF30080054B1868836A03B1984771
:10CC3000204600F055F800BF0000000020D107009A
:10CC400070B50D4D0D4C641BA4100026A64209D1F1
:10CC50000B4D0C4C00F046F8641BA4100026A642B5
:10CC600005D170BD55F8043B98470136EEE755F8FD
:10CC7000043B98470136F2E744580020445800200E
:10CC8000445800204858002030B501390024A24201
:10CC900001D1002005E0035D01340D5DAB42F6D00B
:10CCA000581B30BD0A44914200F1FF3300D1704758
:10CCB00010B511F8014B03F8014F9142F9D110BDA5
:10CCC00002440346934200D1704703F8011BF9E781
:10CCD000034613F8012B002AFBD1181A01387047BC
:10CCE000FEE700BFF8B500BFF8BC08BC9E46704721
:10CCF000F8B500BFF8BC08BC9E46704761636F6E14
:10CD00006E6F4F5441000000000000000000000062
:10CD10000D8807002191070041A4070020000000B2
:10CD20007800000000000000011104FC0400000075
:10CD300000000000021104FC0400000000000000DC
:10CD4000032104FC0410000000000000041101FF96
:10CD50000100000000000000051102FE04000000B8
:10CD600000000000061104FC0400000000000000A8
:10CD7000071104FC0400000000000000081701FF78
:10CD800022000000F8CF0700091001FF0100000099
:10CD9000F4CF0700000000000000000000000000C9
:10CDA0000338FDD870470000982F8A4291443771AC
:10CDB000CFFBC0B5A5DBB5E95BC25639F111F1591E
:10CDC000A4823F92D55E1CAB98AA07D8015B831260
:10CDD000BE853124C37D0C55745DBE72FEB1DE800C
:10CDE000A706DC9B74F19BC1C1699BE48647BEEF3B
:10CDF000C69DC10FCCA10C246F2CE92DAA84744AC6
:10CE0000DCA9B05CDA88F97652513E986DC631A83B
:10CE1000C82703B0C77F59BFF30BE0C64791A7D51A
:10CE20005163CA0667292914850AB72738211B2EA2
:10CE3000FC6D2C4D130D385354730A65BB0A6A768A
:10CE40002EC9C281852C7292A1E8BFA24B661AA896
:10CE5000708B4BC2A3516CC719E892D1240699D6A6
:10CE600085350EF470A06A1016C1A419086C371E1F
:10CE70004C774827B5BCB034B30C1C394AAAD84EFD
:10CE80004FCA9C5BF36F2E68EE828F746F63A57838
:10CE90001478C8840802C78CFAFFBE90EB6C50A4CB
:10CEA000F7A3F9BEF27871C678D1070080D10700E8
:10CEB0000800000050D1070058D10700080000000A
:10CEC00070D1070078D107000800000068D1070082
:10CED00070D10700080000000010000004000000EE
:10CEE000010000000010000004000000010000002C
:10CEF0000338FDD87047010000070C000C0000004B
:10CF000058020000D38907007789070005890700C8
:10CF1000C98B0700AF8B0700718B0700318B0700AF
:10CF200099AF070000000000011704FC9800000002
:10CF30004CD00700021704FCDC0000001CD00700E6
:10CF400000000000000000000000000050EADA309D
:10CF50008883B89F604F15F30000C98E58D1070031
:10CF600068D10700080000006F940700659407006F
:10CF7000B99E0700059407009D930700E5920700FE
:10CF8000DD9207008B930700F8412EB40211C374A1
:10CF9000E88E26A380C8A5CDA661CF00DCC0CD1346
:10CFA0004BE6EA04E7784A8E77FC7BA661BDEA6E21
:10CFB000B99FACE7D0D96C9A73B62221E7E5D2C409
:10CFC000A1D629E5A7FA23E6480028000020400062
:10CFD00015C90700ED9207009DB00700C79E070026
:10CFE00039B00700D7AF0700E9920700E1920700C8
:10CFF000C9920700000000000101000001000000CC
:10D0000000000000020500002100000000000000F8
:10D010000000000000000000000000000107000008
:10D02000980000004CD00700020100000100000041
:10D0300000000000030500004100000000000000A7
:10D04000000000000000000000000000011101FFCE
:10D050000100000000000000021702FE9400000022
:10D0600028CD0700000000000000000000000000C4
:10D0700008200001FFFFFFFFFFFFFFFFFFFFFFFF93
:10D08000000000000000000000000000010000009F
:10D09000FFFFFFFF512563FCC2CAB9F3849E17A7A7
:10D0A000ADFAE6BCFFFFFFFFFFFFFFFF000000003F
:10D0B000FFFFFFFF96C298D84539A1F4A033EB2DAE
:10D0C000817D0377F240A463E5E6BCF847422CE19A
:10D0D000F2D1176BF551BF376840B6CBCE5E316BDE
:10D0E0005733CE2B169E0F7C4AEBE78E9B7F1AFEA2
:10D0F000E242E34F4B60D2273E3CCE3BF6B053CCEE
:10D10000B0061D65BC86987655BDEBB3E7933AAA89
:10D11000D835C65ADBC207002DC407008DC40700EE
:08D12000E457002000000000AC
:08D12800F1B0070019960700A1
:0CD13000000000000300000097840700CE
:10D13C00145D0020405D0020515D00206C670020D4
:04D14C00F4000000EB
:08D150001D9B07000000000018
:10D1580029920700000000008591070000000000E8
:08D16800B19207000000000075
:08D17000D9980700000000003F
:08D178002197070000000000F0
:08D18000C0B0FF7F01000000B8
:10D18800FFFFFF000000000000000000000000009A
:10D198000000000000000000000000000000000087
:10D1A80001000000010000000090D0030000000012
:10D1B8000000000000000000000000000000000067
:10D1C8000000000000000000000000000000000057
:10D1D8000000000000000000000000000000000047
:10D1E8000000000000000000000000000000000037
:10D1F8000000000000000000000000000000000027
:10D208000000000000000000000000002582070068
:04D218000182070088
:10D21C0000000000000000008D85070000100000D9
:04D22C0000000800F6
:020000020000FC
:020000041000EA
:041014000080070051
:0410180000E00700ED
:04000003700082B552
:00000001FF
