:02000002F0000C
:1080000000000420B5820F00DD820F00DF820F0028
:10801000E1820F00E3820F00E5820F000000000004
:1080200000000000000000000000000031B40F005C
:10803000E9820F0000000000EB820F00ED820F00CC
:10804000EF820F00EF820F00EF820F00EF820F0030
:10805000EF820F00EF820F00EF820F00EF820F0020
:10806000EF820F00EF820F00EF820F00EF820F0010
:10807000EF820F00EF820F00EF820F00EF820F0000
:1080800055B30F00EF820F00EF820F00EF820F0059
:10809000EF820F00EF820F00A1B40F00EF820F00FC
:1080A000EF820F00EF820F00EF820F00EF820F00D0
:1080B000EF820F00EF820F000000000000000000C0
:1080C000EF820F00EF820F00EF820F00EF820F00B0
:1080D0006DB30F00EF820F00EF820F00EF820F00F1
:1080E000EF820F00EF820F008DCF0F000000000025
:1080F00000000000EF820F0000000000EF820F0080
:10810000000000000000000000000000000000006F
:10811000000000000000000000000000000000005F
:10812000000000000000000000000000000000004F
:10813000000000000000000000000000000000003F
:10814000000000000000000000000000000000002F
:10815000000000000000000000000000000000001F
:10816000000000000000000000000000000000000F
:1081700000000000000000000000000000000000FF
:1081800000000000000000000000000000000000EF
:1081900000000000000000000000000000000000DF
:1081A00000000000000000000000000000000000CF
:1081B00000000000000000000000000000000000BF
:1081C00000000000000000000000000000000000AF
:1081D000000000000000000000000000000000009F
:1081E000000000000000000000000000000000008F
:1081F000000000000000000000000000000000007F
:1082000010B5054C237833B9044B13B10448AFF3D0
:1082100000800123237010BD605800200000000082
:1082200010D40F0008B5034B1BB103490348AFF34B
:10823000008008BD000000006458002010D40F002A
:10824000154B002B08BF134B9D46A3F5803A002128
:108250008B460F461348144A121A04F0FDFE0F4BCA
:10826000002B00D098470E4B002B00D098470020E1
:10827000002104000D000D48002802D00C48AFF387
:10828000008004F0A9FE2000290003F0F5F904F0B5
:108290008FFE00BF00000800000004200000000066
:1082A00000000000605800205088002000000000FE
:1082B000000000000649074A074B9B1A03DD043BF8
:1082C000C858D050FBDC03F007F9FFF7B9FF0000F6
:1082D0007CD40F00B857002060580020FEE7FEE76E
:1082E000FEE7FEE7FEE7FEE7FEE7FEE7FEE7FEE766
:1082F00070B5EFF3108672B60D4A94680123A4B9E5
:1083000093600C4B0C4DD3F8801029401160C3F8DA
:108310008050D3F8841051604FF0FF32C3F88420AE
:10832000047006B962B6002070BD0370F9E700BFA3
:108330007C58002000E100E0FC06FFBD044B53E840
:10834000011FC1EA014143E80112002AF7D1704739
:1083500088580020044B53E8021FC1EA214143E83A
:108360000212002AF7D170478858002013B5114B2C
:1083700053E8012F94B2D9890C4499898C4228BFC3
:10838000641A19898C4202BFBFF32F8F002307E0C4
:10839000C4EA020443E801410029E9D14FF0010396
:1083A0008DF803300192019B03609DF8030002B039
:1083B00010BD00BF8858002010B5064B002253E8BE
:1083C000001F01EA020043E8000494F0000FF6D118
:1083D00010BD00BF985800202DE9F0471A4C064602
:1083E0001D4604F12000194B63620F46904602F0CF
:1083F000A9FFA24628BBDFF85C90C4F82090F6B134
:1084000047B9DAF824302968DA68914210D248F284
:10841000145016E0636A3A465B68314604F1200066
:10842000984770B9236A4B45EBD048F2025008E0F8
:108430002A4641469B680648BDE8F047184748F27F
:108440001050BDE8F08700BF7C580020A0D00F007E
:108450009C5800206E524648F0B5164C164ED4F883
:108460009C3000220227072B06D90AB1C4F89C30A1
:108470000420F0BD0122F6E71D0105F1804202F55E
:10848000F0323544C2F80008C2F80418C5F808787C
:10849000D2F800C8604503F10103EBD1D2F80428FB
:1084A0009142E7D1D5F80828022AE3D1C4F89C30DC
:1084B0000020DEE77C58002000E0014043681A44B9
:1084C000426011B101399A4201D10120704713F87D
:1084D000010B01F8010FF6E75B689A68064B9A42B8
:1084E00008D1D0E9012305490132013BC1F8A020A0
:1084F000C1F8A430704700BFB8D00F007C580020EE
:1085000043F204031A68084B9A4201BF43F208037E
:10851000186800F6FF7020F47F600CBF20F00F0099
:108520004FF48050704700BFDBE5B15108B5FFF74D
:10853000E7FF054BD3F8C030184400F6FF7020F475
:108540007F6020F00F0008BD7C580020F8B5094E70
:10855000094CA41B0746E40800250436A54201D1B6
:108560000020F8BD56F83530384698470028F8D135
:108570000135F3E71CD40F0024D40F0029DF704726
:10858000024B0620D3F86032184700BF7C58002009
:1085900018DF704743690BB1C0681847704713DF95
:1085A000704766DF704762DF7047B5DF7047B1DF45
:1085B0007047B0DF7047AEDF70477FB50023CDF85E
:1085C0000B308DF80F300B4BADF80610B3F870324E
:1085D000ADF8083001238DF80A300DF10603CDE91E
:1085E0000430054B02A91888FFF7E5FF07B05DF8D6
:1085F00004FB00BF7C580020B857002010B504468B
:1086000086B000210D2202A8019104F025FD2378F7
:10861000082B0ED1384AB2F87832B2F87A12013B00
:108620009BB2A2F87832E9B1E3B90323A2F8781239
:108630002370627823788DF805306021012A8DF847
:1086400004108DF806200FD00B2A13D12A4B0021DD
:1086500093F87C228DF8072083F87C12042101A86E
:10866000FFF7ABFF06B010BD062B05D0082B29D0B5
:10867000032B27D00321F2E7E1688DF80710D4E936
:108680000123080A8DF80800080C090E8DF80A105D
:10869000110A8DF80B208DF80C10110C120E8DF8AC
:1086A0000E201A0A8DF80F308DF810201A0C1B0EB0
:1086B0008DF80D108DF809008DF811208DF812300D
:1086C0000F21CCE7D4E90123110A8DF807208DF89A
:1086D0000810110C120E8DF80A201A0A8DF80B30B2
:1086E0008DF80C201A0C1B0E8DF809108DF80D203A
:1086F0008DF80E300B21B2E77C580020ADDF7047BB
:10870000AADF7047A8DF704790DF70478FDF7047A0
:1087100086DF70477FDF70477DDF70477CDF704703
:108720007ADF704776DF704775DF704774DF704718
:1087300073DF704772DF704770B518228CB000216C
:108740000DEB020004F088FC2823254C0893162327
:10875000ADF806300023CDE90333059304F27D2301
:1087600002930223062284F87D3284F88132592351
:108770000125092684F87F2284F882320322FE2311
:108780000DF1060104F286208DF818508DF82D5059
:10879000ADF80C6084F87E5284F8802284F883322D
:1087A000FFF7BAFFC8B9BDF8063084F885625A19D8
:1087B00084F88422BDF80C200A4C134402A906AAAE
:1087C000A01CADF80C30FFF7B5FF30B9A078FFF76B
:1087D000ADFFA0782946FFF7ABFF0CB070BD00BF1E
:1087E0007C580020B85700206DDF70476CDF704761
:1087F000062810B5044602D10020FFF7A7FE044B5F
:10880000D3F89C321BB12046BDE81040184710BD7C
:108810007C58002010B50B689A684B680024C0E9AA
:108820000243C0E9002294782344036192F9034093
:10883000234443614B68036101F10C0343615378A6
:1088400003F0C003802B04BF0431016110BD2DE98A
:10885000F341002604460F46B0463546A3682BB3C5
:10886000236801220DF1070120469847F0B1A36863
:108870009DF807C0013B0CF07F02C5F12001A36009
:10888000A5F1200302FA03F322FA01F10B43AA40F7
:108890001CF0800F46EA020643EA080805F10705C6
:1088A00002D1C7E9006802E0462DD7D1002002B00E
:1088B000BDE8F081F7B50F4669461646FFF7C7FFDA
:1088C000B0B1DDE90013002501F001044A0842EAD5
:1088D000C37254EA05014FEA530314BFDD431D463A
:1088E0003B7914BFD4431446082B03D1C6E9004595
:1088F00003B0F0BD042B08D134602246D317AB423D
:1089000006BFA24201200020F2E7022B03D123B2CE
:1089100033801AB2F2E7012B03D163B233705AB23B
:10892000ECE70020E4E773B50C4669461646FFF70E
:108930008EFF68B12379082B0CD1DDE90045C6E92B
:108940000045DDE90023AB4206BFA2420120002022
:1089500002B070BD042B04D1009B33601C4600257F
:10896000EFE7022B4FF0000004D1009B33809CB254
:108970000546E6E7012BEBD1009B337003F0FF04C3
:10898000F6E737B50D4669461446FFF760FF30B18C
:108990002A79082ADDE9003103D1C4E9003103B0A6
:1089A00030BD042A18464FEAE37108D123601A4605
:1089B0000B468B4206BF824201200020EFE7022ACD
:1089C00004D11BB223801AB2D317F2E7012A03D1D4
:1089D0005BB223705AB2F7E70020E0E72DE9F341DC
:1089E00083680446884623B90026304602B0BDE8B5
:1089F000F081036801220DF107019847064600281F
:108A0000F2D0A3689DF80750013BA3609DF90730A1
:108A1000002B1ADA05F07F050727A368002BE3D0A7
:108A2000236801220DF10701204698470028DBD07A
:108A3000A3689DF80720013BA36002F07F03BB40C1
:108A40001D43130607F1070702D4C8F80050CCE70E
:108A5000232FE2D1C8E773B50D4601A90446FFF7FD
:108A6000BDFF064618B90026304602B070BD94E836
:108A70000F0085E80F0001998A42F4D3A960A3682A
:108A80005B1AA360F0E730B5044685B01546A9B976
:108A90000268124B9A4211D0102D06D82A46694618
:108AA0002046FFF7F0FF05B030BD10226946204692
:108AB000FFF7E9FF0028F6D0103DEDE7A368AB42D1
:108AC00001D20020EFE723682A4620469847002875
:108AD000F7D0A268521BA260E5E700BFBD840F007B
:108AE000F7B50E4601A907461546FFF777FFA8B16F
:108AF000019A0123D3184FF0000404D2717801F0D9
:108B0000C001802901D1204608E031799942FAD389
:108B100029463846FFF7B7FF019BEC5403B0F0BD80
:108B200073B50D4601A906461446FFF757FF90B1ED
:108B3000019AFF2A11D86B7803F0C003802B02F151
:108B400001010AD02B798B4207D32146304601F828
:108B5000012BFFF798FF02B070BD0020FBE713B5B3
:108B6000144669460822FFF78EFF18B1DDE900239D
:108B7000C4E9002302B010BD13B5144604220DEB66
:108B80000201FFF780FF08B1019B236002B010BD16
:108B900013B5044605291FD8DFE801F0030F151EA1
:108BA0001E1C012201A92046FFF76DFF18B19DF997
:108BB0000430002BF5DB02B010BD08220021204656
:108BC000FFF761FFF7E701A9FFF708FF0028F2D0E0
:108BD000019AF3E70422F1E70020ECE710B54368BF
:108BE0001A787AB103F10C0242601A7B62B901680B
:108BF000C368C0E901128C782344036191F9031022
:108C00000B444361104620E059781A7901F0300492
:108C1000302C1BD15C7B04F03004302C1ED19978B1
:108C20000269521A02610022597811F0300F02BF16
:108C3000816801318160997B114402690A440261B3
:108C400093F90F301A444261012010BD01F0F00485
:108C5000202C03D1597911FB02F2E5E701F0C001A4
:108C6000802908BF0422DFE70A4AD2F800347BB12A
:108C700009480023D2F80815D940C90748BF03F5B1
:108C8000C07103F1010348BF42F82100072BF1D165
:108C9000704700BF000001403546526EE4E7024BCA
:108CA000012283F8A02270477C58002037B56FF06E
:108CB0007F42154C057BD4F804358A4228BF0A460A
:108CC000891A13444A1E942A23F07F4305F5A8729B
:108CD0009BBF963B96314160416044F822300B4B7C
:108CE0004FF4F86043F001039847094BAA0013447E
:108CF00000221A601B680193019B4FF48033AB4044
:108D0000C4F8043303B030BD0040024030D10F003E
:108D1000404102401A4890F8A12284B0002A2CD188
:108D20004FF08043A021D3F81834DB035EBF154B0E
:108D300001221A60144A0023136012680392039AF6
:108D4000124A136012680292029A114A1360126862
:108D50000192019A0F4A82F824131021C2F884115B
:108D600051600D4A0D49C2F8083501230B600221FC
:108D70001360C2F8041380F8A13204B0704700BF3A
:108D80007C58002008000040004102404041024061
:108D90004441024000E100E000400240084002403F
:108DA00038B5114BD3F80024CAB1D3F804450F4DA0
:108DB00040F616518C42B8BF0C46A4F54864FFF744
:108DC00053FFEC61FFF7A6FF2846094B40F8143F1C
:108DD0002146FFF76BFF074B4FF480321A60064BBA
:108DE000012283F8A22238BD00000140B8570020BC
:108DF0009D8C0F0000E100E07C580020024B012216
:108E000083F8A322704700BF7C58002041DF7047E1
:108E1000BFF34F8F0549064BCA6802F4E062134363
:108E2000CB60BFF34F8F00BFFDE700BF00ED00E058
:108E30000400FA0508B5FFF7EBFF69B10B78022BC8
:108E40000CD1022804D0032814BF08201120704739
:108E500003230B70002070470E20704708207047D6
:108E600038B1054B0360054B4360012303720020BA
:108E700070470E20704700BFCD930F003B8E0F0050
:108E8000084B1844012290F896301F2B86BF0649E4
:108E900003F01F034FF0A04102FA03F3C1F80835B5
:108EA000704700BFA0D00F000003005008B5FFF7C7
:108EB000AFFF0F4B30B50124C3F80445BFF36F8FEC
:108EC000BFF34F8F01EB8202401A914207D100227B
:108ED000C3F80425BFF36F8FBFF34F8F30BD441825
:108EE00051F8045B2560D3F80044002CFBD0ECE77C
:108EF00000E001400A4B0222C3F80425BFF36F8F44
:108F0000BFF34F8FC3F80805D3F80024002AFBD025
:108F10000022C3F80425BFF36F8FBFF34F8F704754
:108F200000E001404BDF704761DF704769DF704749
:108F300060DF704711DF704710DF7047084B18443F
:108F4000012290F896301F2B86BF064903F01F03BD
:108F50004FF0A04102FA03F3C1F80C35704700BF8F
:108F6000A0D00F000003005038B5072835D8DFE83F
:108F700000F0042D3434340434044FF0A0430322B1
:108F80001648174DC3F834270124C3F83827C3F80F
:108F90003C27C3F84027002210F8013B1F2B86BF57
:108FA00003F01F0329464FF0A041013204FA03F3F6
:108FB000042AC1F80835EFD10020FFF7BFFF0120D8
:108FC000FFF7BCFFBDE83840022059E70120FFF75A
:108FD00057FFBDE838400220B0E738BD36D10F005A
:108FE00000030050024B0020C3F80005704700BF8B
:108FF00000A002500E4B984214D00AD8B8B10D49C7
:1090000048F2165248F20153884214BF10461846DF
:109010007047094B984208D0084948F2165248F266
:109020000353F1E748F20350704748F2025070478B
:109030000102F0000002F0000202F0000F02F00056
:10904000054B1B68082B01BF044B1868B0FA80F071
:10905000400918BF00207047300100103401001093
:10906000436843B1026891680B444360526893427D
:1090700004BF0023436070477FB50E4D0E4C0F4E6A
:1090800001A8FFF74FFF78B9B44218BF20460295F8
:109090000390039B002BF3D00198D3E90021904764
:1090A00002A8FFF7DDFFF4E7052801D0FFF7B0FEC7
:1090B00004B070BD3CD10F006CD40F0074D40F000D
:1090C00030B5134DADF5017D4FF4FA740DF1020189
:1090D00003A8ADF80240FFF727FF88B90D4B0E4AF1
:1090E0000195934208BF03460293029B002BEDD0EB
:1090F00003A8D3E90021904701A8FFF7B1FFF4E7E7
:10910000052801D0FFF784FE0DF5017D30BD00BFBD
:1091100048D10F0044D40F004CD40F00024B93F8F9
:10912000A43203B1CCE770477C58002013B50A4B3A
:109130000A4A00930A4B934208BF00230446019356
:10914000019B0BB902B010BD2046D3E90021904726
:109150006846FFF785FFF3E754D10F006CD40F008A
:1091600064D40F0013B50C4B0C4A00930C4B934284
:1091700008BF002304460193019808B902B010BD4E
:10918000D0E900212046904718B16846FFF768FFF4
:10919000F2E71120F2E700BF60D10F0064D40F00A6
:1091A0005CD40F00044B93F8B0020122B0FA80F0B7
:1091B00083F8B922400970477C580020034B93F88C
:1091C000B002003818BF0120704700BF7C58002053
:1091D00000207047002070470846704708467047D7
:1091E0000E4B30B543600E4B012003F52A7151E858
:1091F000002F42EA000441E8004595F0000FF6D147
:1092000052B993F8BC1283F8B81203F53071C3E970
:1092100003125A61034A9A61002030BD6CD10F00DD
:109220007C580020DC011C0070B50668B36886B06D
:1092300004460D4673B114220021684603F00CFF6A
:10924000A36805932379019533B1012B0ED0B36840
:109250006846984706B070BD01238DF80030236939
:109260000293E368039363690493F0E702238DF8A4
:109270000030E3681B030293F5E728DF7047034BD8
:10928000D869003818BF0120704700BF7C58002003
:109290002DE9F04115461F4686B0164B80460E4616
:1092A000012253E8004F44EA020143E8001090F025
:1092B000000FF6D1E4B921468D4213D1FFF77CF8B7
:1092C000D8F8083053B102228DF800200022CDE9F1
:1092D0000126CDE90325059768469847204606B044
:1092E000BDE8F08106EB0130FFF704FE0131E3E752
:1092F0001124F3E7985800202DE9F0431D4687B06C
:10930000144B80460F4616464FF0010953E8004FB4
:1093100044EA090243E8002191F0000FF6D1BCB9FC
:10932000AA0831463846FFF7C4FDFFF745F8D8F8DC
:1093300008304BB10E9A8DF80090CDE90147CDE988
:109340000365059268469847204607B0BDE8F0835C
:109350001124F9E79858002008B5FFF72DF80020F0
:1093600008BD024B43600020704700BF78D10F005A
:1093700030B53AB11368DB430A4D0144814204D150
:10938000D84330BD4FF0FF33F6E710F8012B5340C0
:10939000082213F0010418BF2C46013A84EA530353
:1093A000F7D1EBE72083B8ED10B5074CFFF7A8F82D
:1093B000D4F8C0100022FFF7DBFFD4F8C4301B1A2A
:1093C0005842584110BD00BF7C58002070B504467B
:1093D0000D4601B30B78012B06D01ED9033B012BA0
:1093E00094BF0820112070BD0D4ED6F89C3190B16D
:1093F000013312D1002218210430FFF7B9FF0722F0
:109400002060214606F5CE70FFF7B8F80028EAD1B3
:1094100002232B70E7E70E20E5E70820E3E700BF13
:1094200000F00F0010B5084B9A685AB150B9EFF32D
:10943000108172B6054A1C6814605C6854609860BC
:1094400001B962B6002010BD7C58002000E100E0A8
:1094500073B51C4D95F8BC327BB3012085F89C0494
:10946000FFF780FE11284FF0000628D00220FFF7FA
:109470005DFE0DF107008DF80760FEF739FFFFF77D
:1094800059FD04469DF8070085F8BC62FFF7CAFF46
:1094900054B9AB6885F89C444BB12B6823F4800326
:1094A0002B600320FFF742FE204602B070BD064B42
:1094B0004FF48002C3F88020F3E70824F4E7344631
:1094C000F2E700BF7C58002000E100E038B5154904
:1094D000D1F8A034024613F0010021D01248824294
:1094E0001DD0124A10884FF6FF74A04213D043F0EB
:1094F0000403C1F8A0341321FFF714F980B90C4D0F
:10950000C82445F001054FF47A40A847013CFAD140
:10951000BDE838409CE79078FFF708F9F8E70020AD
:1095200038BD00BF7C5800201CD40F00B857002065
:1095300090D10F0013B5002304460DF107008DF8FC
:109540000730FEF7D5FE094A0948D2F8A434591C61
:10955000C2F8A414241AF420B4FBF0F41C709DF893
:109560000700FFF75FFF02B010BD00BF7C5800206E
:1095700018680020DEE737B5224D95F8BC42002C74
:109580003ED10123204685F89C34FFF7EBFD1128DE
:1095900033D02046FFF7CAFD1B4B8DF803401868F7
:1095A00001900DF10300FEF7A3FE184901A8FFF793
:1095B000C3FC0446B0FA80F0400985F8BC029DF86F
:1095C0000300FFF72FFFC4B9114985F89C4491F8B7
:1095D00016335A09EC231341DB0705D5AB682BB9C9
:1095E0004FF480030B6005E0FFF712FC2B6843F497
:1095F00080032B600120FFF799FD204603B030BDAA
:109600000824FAE77C58002096D10F00AD8E0F0099
:1096100000E100E038B5831E012B54D82A4C94F8A1
:10962000B032002B4FD0022B0AD1032833D00022B6
:10963000D4F8AC34C4F8B4221A793AB1012A24D04F
:1096400094F8B9329BBBBDE838403FE0D3E905123E
:109650008D1A142D94BF521914329A619142EFD190
:1096600002284FF000030CBF19460D21D4F8AC04BA
:1096700084F8B032FFF7D8FDB4F8B024B4F8B234AF
:109680009A42DDD1FEF766FEDAE71A6901321A6105
:109690005B699A42E3E7D4F8B4320133082B02D86D
:1096A000C4F8B432CCE70023C4F8B432D8E794F855
:1096B0009C3443B194F8BC3213B1BDE83840C7E6DE
:1096C000BDE8384057E738BD7C58002037B53E4CE0
:1096D00094F8B032002B33D104F10C0353E8022F7D
:1096E0001FFAA2F0D988884202BFBFF32F8F002350
:1096F0000DE0D98908449989884228BF401AC2EAF6
:10970000004043E802010029E8D14FF001038DF841
:1097100003300192019A9DF80330C4F8B02403F09D
:10972000FF0133B9C4F8AC140023C4F8AC3203B061
:1097300030BDE36803EB1243C4F8AC34002BF3D024
:109740000223D4F8AC5484F8B0322B79ABB1012B9E
:109750002AD003212846FFF767FD0023B4F8B02480
:1097600084F8B032C4F8AC32B4F8B2349A42DED1E4
:1097700003B0BDE83040FEF7EDBDD5E90523D21AB0
:10978000142AD5E9031028BF14229208012A38BFF1
:10979000012219441844FEF7F1FE58B11128D8D11E
:1097A000012384F8B032C2E7D5E903031844FFF778
:1097B00064FDF2E794F8B832002BB8D101460220DC
:1097C00003B0BDE8304025E77C58002000F0FD03E1
:1097D000012B09D1054B002283F8B922421E5042C9
:1097E000504183F8B80271E7704700BF7C580020F1
:1097F0000A4930B401F52B73012253E8000F40EA07
:10980000020443E8004595F0000FF6D120B991F825
:10981000B9320BB930BC59E730BC70477C580020D6
:109820002DE9F341274C002605460DF107008DF880
:1098300007600F46FEF75CFD94F8B434B4F8B61434
:1098400094F8B5048842C2B238BF561CDBB238BFA8
:10985000F6B2B3422FD094F8B56494F8B524D3B2DD
:10986000914286BF0133DBB2002384F8B5349DF802
:109870000700FFF7D7FD4FF6FF739E4220D0D4F8C4
:10988000B8244FEAC60842F8367002EBC601ADB103
:10989000D4F8BC34B4F8C004182206FB00302946C2
:1098A00003F0CCFBD4F8B834434418229A8000204B
:1098B00002B0BDE8F0814FF6FF76D8E78D80F6E77D
:1098C0000420F5E77C58002030B52048C0F57F2102
:1098D000C1F30B0389B023B9B0F57F2F01D8FEF790
:1098E000BBFDEFF305824FF480531C6841F2040383
:1098F0001968002383F3148883F3108883F3118895
:1099000083F31388C2F308023AB984F308884FF04E
:10991000FF339E46084709B030BD4FF0FF35203C6D
:10992000CDE90033CDE90233CDE90551049320227E
:109930004FF0807369462046079303F07FFB84F362
:109940000888AE466FF006031847E4E700800F0072
:109950002DE9F743104C1E4623680546D3F81090B6
:10996000884617460146002301222046C84778B999
:109970004FF4DC724146304603F060FB23680097E9
:10998000DF6832464FF4DC7329462046B84700B101
:10999000032003B0BDE8F0834C58002070B5038865
:1099A000232B8AB0044635D80F2B04D8012B00F0A6
:1099B0001A810AB070BD103B132BFAD801A252F8DD
:1099C00023F000BF459A0F00639A0F00B3990F0070
:1099D000819B0F00F79C0F00B3990F00B3990F0004
:1099E000B3990F00B3990F00B3990F00059D0F00B5
:1099F000B3990F00B3990F00B3990F00B3990F00FB
:109A0000B59B0F00B3990F00C39B0F00B3990F00D4
:109A1000719B0F00503B9AB2062ACAD8062BC8D8B1
:109A200001A252F823F000BF8D9A0F00F39B0F00A4
:109A3000059D0F00B3990F00B3990F00359B0F00E0
:109A4000D39B0F00B34B82881A80B34AD2F8C42448
:109A50001C460AB101209047B0492088FEF764FEF9
:109A6000A7E7AC4BAC4C4FF6FF721A80D4F8A02499
:109A7000510704D4FEF760FE08B1FFF7C9F9D4F826
:109A8000C434002B95D00220984792E7A24EE2887A
:109A9000B6F868329A428CD1002504A88DF810508F
:109AA000FEF726FCD6F8A42406F599639A4212D94B
:109AB000511EC6F8A41412F8012C994BF42502FB90
:109AC000053506F2D94396F8A8245B1ADBB29A4210
:109AD00038BF86F8A8349DF81000FFF7A3FC002DCE
:109AE0003FF467AF228A04F11201284603F0A6FA78
:109AF0001822002104A803F0AFFA08238DF81030D3
:109B0000884B0593884B0693884BCDE90735238A0C
:109B1000ADF82430B6F8C034172B03D82846FFF729
:109B200009FD46E7824904A8FFF77AFE00283FF4C2
:109B300040AFF3E7E188F62918D8CB1E9A070DD07D
:109B4000CB1F9BB2013B5A4202F0030203F0030316
:109B500001F1FF3158BF5342C91A89B26D4B1888C1
:109B6000FEF723FD00283FF424AF86E7F721F5E751
:109B7000002202A98088CDE90222FEF7C5FDF1E7A7
:109B80000023ADF812300223ADF8103001AB05937D
:109B9000604B1C8804AA42F605212046FEF7AEFD64
:109BA000034600287FF469AF024685212046FEF770
:109BB000B1FDD7E7574B00F108011888FEF7B4FD57
:109BC000D0E7002369468088ADF80030FEF79EFD9F
:109BD000C8E7A379002B7FF4ECAE4E4B1321188815
:109BE000FEF7A0FDBEE74B4B00211888FEF7D9FC1D
:109BF000B8E7A379002B3FF4DCAE022B7FF4D9AE9B
:109C000045492089B1F8702290420D467FF4D1AECB
:109C1000A27B012A7FF4CDAE0022CDE90422ADF86B
:109C200008308DF8103001AB01200393394B8DF8CB
:109C30001600208A1E88ADF81800608AADF81A0058
:109C400004F114000790ADF80A20B1F8741202AACA
:109C50003046FEF753FD60B99DF80430DB0708D4A9
:109C600040F2FD1304A93046ADF81430FEF7A1FC14
:109C70009FE6002304A93046ADF81430FEF799FCA6
:109C8000014600287FF495AE182204A803F0E4F9F9
:109C9000237D244A0592022B234A8DF81030069228
:109CA00020D0062B0ED0012B0ED12248FEF74EFC01
:109CB000B5F87A32A5F87832637D0893D4F8163077
:109CC000099301E0637D0893069B002B3FF471AE7E
:109CD000B5F8C034172B7FF66CAE154904A8FFF712
:109CE0009FFD66E6A27D637D43EA0223A5F87A32F2
:109CF000A5F87832E8E700231A4619468088FEF76F
:109D000007FD2FE70023A0881A461946FEF74FFCEF
:109D100028E700BFB85700207C5800209AD10F00D8
:109D200018680020E05A0020FD850F0075950F008F
:109D300079A90F001CD40F0008B510461A4603F08D
:109D40007DF9002008BD08B510461A4603F076F9E3
:109D5000002008BD2DE9F341264C274BD4F8DC2424
:109D60009A423DD1D4F8E0345B79202B3BD1234B90
:109D7000C4F8243504F5B962012352E8005F19469E
:109D800042E8001696F0000FF7D1BFF35F8F6DBB6E
:109D90001B4F1C4EC7F800354FF48068C6F804808E
:109DA00004F2CC53009004F2EC5204F2E44104F2C9
:109DB000245001F091FFC7F80055C6F88480BFF326
:109DC0005F8FC4F8C85540B10F4948F2165248F2A7
:109DD0004253884214BF1046184602B0BDE8F081D5
:109DE00048F24050F9E748F21150F6E748F20450C3
:109DF000F3E700BF7C5800207052464DDD55AABBEA
:109E000000A0025000E100E08408F00070B54FF4BB
:109E1000DC72044608480D4603F002F920B954B13B
:109E20002346BDE87040184722462946034B0248A6
:109E3000BDE870408CE570BD00E00F00A85E00201A
:109E4000042870B5154D044614D8022815D9144EAF
:109E5000327C4FF480339340124AC2F80833FEF745
:109E600059FF3046104B40F8043F4FF47011FEF795
:109E70001DFF02E0831F012B06D9D5F8E4375BB143
:109E80002046BDE87040184700230849084885F877
:109E9000A332FFF7BBFFF0E770BD00BF7C58002086
:109EA000B857002000400240B59E0F0000F00F00A0
:109EB000358E0F00034B04490448002283F8A32287
:109EC000A4E700BF7C58002000F00F00358E0F0083
:109ED00010B50D4C0022582104F1AC00FFF748FAF0
:109EE00021464FF4DC7241F8A80F084803F098F8B7
:109EF00040B104F5FD6304F1A8010448BDE8104039
:109F0000002225E510BD00BF7C58002000F00F00A6
:109F100038B50546FFF7DCFF044618B90249284664
:109F2000FFF774FF204638BD245900202DE9F04F7B
:109F300002F6FF7687B0330B03932C4B0493144641
:109F400093F8A222A1EB000805460F464FEA183B02
:109F50000AB9FEF725FFBBF1080F28BF4FF0080B29
:109F60004FEA0B33DFF8889005930CB9224639E0AD
:109F7000039B1F489B4528BF9A46D9F8003038BF3D
:109F8000DDF814801B6938BFDA461E4652464FF092
:109F90000003294628BFA046B047024610BBD9F8A7
:109FA00000100090CA6808F10303164623F003036B
:109FB0003A4629464846B047024698B9039B049A58
:109FC000A3EB0A030393049BD3F8D8304344C2F8AD
:109FD000D830FFF79DFFA4EB0804454447440246F0
:109FE0000028C2D0104607B0BDE8F08F7C58002092
:109FF0004C58002008B5164B42F20402D3F8F0107A
:10A00000885802F1A34202F5471202F2D752904259
:10A0100019D1D3E93602904217D0B1F5805F03D150
:10A02000BDE80840002073E7121A02F6FF7222F41E
:10A030007F62014422F00F0200F58050FFF776FFA7
:10A040000028EDD008BD0320FCE70020FAE700BFA0
:10A050007C58002030B5164BD3F8D420D3F8CC5020
:10A06000D3F8F040AC2A85B01CD1D3F8DC301C44C6
:10A07000ED1A10482A46214602F0D2FF80B10E4B5D
:10A08000D3F800340BB1FEF7EFFD10220021684633
:10A0900002F0E2FFAD08684601940295FEF778FAF7
:10A0A00005B030BD002CE4D1FEF740FA0446E0E7ED
:10A0B0007C58002000800F000000014008B50C22F1
:10A0C000002102F0C9FF024B0022C3F8D82008BDCE
:10A0D0007C5800202DE9F0477A4D7B4C90B0074624
:10A0E0000026641B1423B4FBF3F4A64235D1774C4D
:10A0F0001822002102A802F0AFFF0423D4F8409BED
:10A100008DF80830D4F8F8304B4540F0D38094F8FF
:10A110003C2AD4F81C8B04F6A81304F64425002A24
:10A1200008BF1D462023019305F18F0105F16F0340
:10A130000DF13F0213F8010B02F801099942F9D120
:10A14000634A01AB49464046FEF746F90646D0B1A0
:10A1500017256048FFF7B2FF2DE02B6813B90136D1
:10A160001435C2E7DB69284698470028F7D0574BDB
:10A17000B3F8C034172B03D957493846FFF750FBC3
:10A1800010B0BDE8F087202251480DEB020102F02B
:10A1900047FF0028DCD195F855306BBB0122C4F88D
:10A1A000C8306B68C4F8D420C4F8B030D4F8F030AC
:10A1B000C4E93393012520220021484802F04CFFD6
:10A1C000F422FF21464802F047FF0A2D88BF0B3DCD
:10A1D0004FF00003C4F8D830C4F8F08084BF84F88E
:10A1E0007C520B2502A8D7E901138DF80950984736
:10A1F0003C48FFF78DFEC3E703F0020ADB0753D5A7
:10A2000042F2040358F8031003F1A34303F5471384
:10A2100003F2D75399424BD1AB6D03F5FF5203F6CE
:10A22000FF731F32C3F30B03D31A42F2080258F82C
:10A2300002209A423CD343F204031B688B421AD19A
:10A240004FF440531B78142B81BF43F21403264A6A
:10A250001B68B3FBF2F308F5005298BF334612783F
:10A26000142A81BF42F214021F4858F80260B6FB5C
:10A27000F0F6B34212D0BAF1000F19D01B48FFF725
:10A280001DFFAC23C4F8D430AB6DC4F8DC30BAF198
:10A29000000F8BD06B68C4F8B43087E7BAF1000FB9
:10A2A00014BFAC23A523EDE7AA23C4F8D430EEE70E
:10A2B00005254EE701238DF8093002A8D7E90113DF
:10A2C00098475DE74C580020605800207C580020DB
:10A2D0009C63002048590020D5A00F005C59002045
:10A2E0008059002081850F0040420F003C5900201A
:10A2F00030B54268527802F00F01082987B0034652
:10A300000FD103691C6800250CB907B030BD214688
:10A3100025736846FEF77EFA6846FFF7E9FFA468F2
:10A32000F2E712F0C00120D102F0300010280ED167
:10A330005A6911705A6818695378946803F00F03CA
:10A34000072B09D10146204600F017F8DDE79006FB
:10A35000F0D55B691970D8E71279214614B102F083
:10A360006DFED2E702F078FECFE78029CDD10069FB
:10A37000002192060160C8D5EBE77FB50023CDE947
:10A3800002318378194490F9033004911944037819
:10A390000591CDE900003BB16846FFF7A9FF68468B
:10A3A000FEF71CFC0028F7D107B05DF804FB2DE98F
:10A3B000F04357687B7813F0C00489B006468C469A
:10A3C000154603D0402C6CD000240EE0604903F009
:10A3D0000F0201EB820103F03003202BD1F804813E
:10A3E00026D006D8CBB1102B1CD0204609B0BDE832
:10A3F000F083302BF9D16B6939781970072A0AD1AB
:10A400006B6828691A79214602F026FE6B68296973
:10A410009868FFF7B2FF2A6940E02A693946C047C9
:10A420000446E2E76B6901221A702A696968F6E757
:10A43000BCF1020FD5F8149024D1042A22D804A923
:10A44000FEF709FB04460028BED0069B2BB16968C5
:10A4500099F800304A799A4205D8059B7360069BAB
:10A46000002BC2D0B0E708792A6900FB032204A8B8
:10A47000C04728B199F80030013389F80030E4E78B
:10A480000446EAE799F800307A799A429CD92A6919
:10A490003979581C89F8000001FB032269683046AD
:10A4A000BDE7D2F81080474657F8043B13B9FEF7D2
:10A4B0006FFBB5E7022914D104A9FEF7CCFA0028F6
:10A4C00082D0D8F8003069683A4604A89847044614
:10A4D00000283FF479AF069B002BF2D1059B7360F7
:10A4E00083E7012925D005292BD000297FF46CAF03
:10A4F0000C460DF1040901340B2C3FF465AF012229
:10A5000049463046FEF7BFFA00283FF45DAF19F91F
:10A51000013B002BEFDB0F4B049301ABCDE905347E
:10A5200000230793D8F8003069683A4604A8984792
:10A5300076E7082201A9FEF7A6FA08240028EAD146
:10A5400042E704220DEB0201FEF79DFA0424F5E731
:10A55000A0D00F00BD840F002DE9F04F8B788FB095
:10A560000025CDE904521A4491F903300692CDE951
:10A570000055CDE902111A44044607924FF0010834
:10A58000A3682BBBDDE9033402A85D78FEF726FB48
:10A590000028F7D115F0300F03D1039B1B7803B1CE
:10A5A0000134002C65D06309002293425BD10EAACE
:10A5B00002EB830304F01F044FF0FF30C4F12004CA
:10A5C00020FA04F453F8380C231A5842584108E092
:10A5D00008A92046FEF702FA30B9A368002BD1D0B3
:10A5E00000200FB0BDE8F08F089EDDF80CA0002E13
:10A5F000C8D0F70806F00706039B1A78974204D1E3
:10A600005B7803F00F02082A58D102A8FEF7E6FA99
:10A61000DDF80C90CA45EFD1BD420DD8039A5378AE
:10A6200003F00F03082B29D002A8FEF7D7FA039BEB
:10A630009945F3D14FF0FF3531462046FEF7A8FA91
:10A6400000289DD1CCE79B681B789F4233D14946B7
:10A6500008A8FEF7DFF889F80C8008AA31462046E2
:10A66000FFF7A5FE25E05DF822100131B8D10132D7
:10A670009BE70120B5E79A45DED081E71578BD421A
:10A68000DAD8069BD4F808A0D3F80090A368B9F1F3
:10A69000000FF0D09A457FF473AFD9F80030D3F8AB
:10A6A00000B0BBF1000FCED033463A4649462046B3
:10A6B000D847002894D0D9F80890E7E713F0300F76
:10A6C0000FD1049B3F2B0CD85A090EA901EB820233
:10A6D00003F01F0352F8381C08FA03F30B4342F847
:10A6E000383CD4F80C90B9F1000F04D002AB3246DC
:10A6F00039462046C84702AA31462046FFF757FE92
:10A700009EE738B5104C114AD4F8E030104DC4F82B
:10A71000442B04F58272C4F8482BC4F84C3B04F572
:10A720001A620C4BC4F8503B114600232846C4E97A
:10A730002833FFF722FE04F51A62294604F6443056
:10A74000BDE8384008E700BF7C580020BD840F00FA
:10A75000C8D10F00D9840F00F7B57C4CD4E938324A
:10A760009A42264640F0EC8094F8543B53B1FDF7F2
:10A77000DDFED4F8CC30C4F81C0BC4F8403B0120FB
:10A7800003B0F0BDFFF7BDFF002845D094F83C5A58
:10A790001DB994F8A039002B3ED00023C6F81C3B0D
:10A7A000C6F8403B4DB16A4D96F8D83AA5F19904E8
:10A7B0002022019225B91320E2E7664C2B46F7E7E9
:10A7C0009BBBD6E92801644A01ABFDF705FE50BBEF
:10A7D0002A78402A27D1691C604802F02FFC5F4B81
:10A7E000102203F11F0118780D7803F8015B013A7C
:10A7F00001F80109F7D15A4B102203F11F01187813
:10A800000D7803F8015B013A01F80109F7D10198CD
:10A81000FFF7A0FA054608B10520B1E794F85830D3
:10A820002BB90F20ACE70A20AAE71620A8E794F876
:10A830005930032BF5D894F87120032A40F0828018
:10A84000227B002AEDD02269342A7DD143F2040113
:10A85000227D08684349884227D1F2B1A169E1B15C
:10A8600004F11400002143F20C0CCFB2BA4201D81B
:10A87000122085E7BCF8007050F804EFBE4501F1E6
:10A880000101F2D12279DAB1012B1BD9A168D6F8E6
:10A89000B420914216D8102072E7002BF2D05A1E35
:10A8A00018BF0122002AEDD1E2E712B1A269002A05
:10A8B000DED1012B0CBF2279012202F00102F1E767
:10A8C000012BAED8012286F8542B1BBB94F86820CC
:10A8D00032B3E56E002DA4D0C6F8405BFDF726FE2E
:10A8E0002149081A854207D9FDF70AFE081A854250
:10A8F00022D81E48FFF7E2FB00231D480124C6E9C9
:10A900002E34FFF7DBFBC6F8CC50FDF70FFEC6F880
:10A910001C0B34E7DA0703D594F85A2002B1E56D31
:10A920009B07D7D594F86030002BD3D0114B626EC3
:10A93000C3F57E239A4201D9042021E71544C9E7D3
:10A9400008201DE714201BE7112019E77C58002080
:10A950005563002020620020485E0020685E0020D1
:10A96000885E0020DBE5B15100500F003C5900200B
:10A970004859002000800F002DE9F041044688B0BE
:10A980001822002102A802F067FB25788DF80850F4
:10A9900001238DF809300C2D00F2DF81DFE815F07E
:10A9A000760083001F0083008300DD0183007900AF
:10A9B000830075000D002D007D004FF08053D3F80B
:10A9C00000210392D3F804210492D3F80C219202BF
:10A9D0000692D3F81021920205921B690793D4E9DD
:10A9E000011302A898479DF80930012B00F0A781B8
:10A9F000BD4B0520D3F86032A0E143F20403BA490D
:10AA00001D68D1F8C820B948854214BF012302232C
:10AA1000012A227C08BF01335AB902238DF80C3079
:10AA2000D1F8B4300493B24B0593C3F57E2306935B
:10AA3000D5E7012A14D1854212D100234FF44052A8
:10AA40008DF80C301278142A84BF43F214031B686B
:10AA500004934FF48053059343F208031B68E6E721
:10AA60009A420BD201238DF80C30D1F8B030049308
:10AA7000FDF746FDD1F8C0300590D8E7FF238DF8EB
:10AA80000C300023CDE90433D1E7237C8DF80C3062
:10AA9000A5E7238AADF80C30A1E7934B0720D3F844
:10AAA000603298479BE7062D924B01D0012D02D1D1
:10AAB000226983F8242093F82460012E06D0022E08
:10AAC00000F08B80002283F82420D6E06B1E072B39
:10AAD00085D801A252F823F0F9AA0F00DFA90F00D0
:10AAE000CBAB0F0093AB0F00DFA90F00C5AB0F007E
:10AAF000DFA90F0033AB0F007B4E0320D6F8603286
:10AB0000984767698FB1B7F5807F10D80021202260
:10AB100006F1E00086F8541BC6F8D81002F09CFA43
:10AB2000C6F8E0708DF8095059E70325FAE70425C7
:10AB3000F8E76D4DA78AD5F8E400D5F8E0303A186B
:10AB40009A4224D8D4F8108028443A46414600F569
:10AB5000827002F073FAD5F8E43005F1E8023B4464
:10AB600039464046C5F8E430FEF702FCC5F8E80077
:10AB7000D5F8E4300393D5F8E8300493E3688DF812
:10AB80000960002B3FF42BAF2069984727E7032685
:10AB9000EEE7FFF7E1FD0A2807D9534B0B3883F89E
:10ABA0007C020B238DF8093019E701288DF8090084
:10ABB0007FF415AF0020FFF7ABF900283FF40FAF8B
:10ABC0000A23EFE74FF480730593474BD3F8E42053
:10ABD000D3F8E8300392049301E7013D072D3FF6D7
:10ABE000FEAE01A353F825F009AC0F00DFA90F005A
:10ABF000FDAC0F000DAD0F00DFA90F0045AD0F003C
:10AC0000DFA90F007FAC0F00374B93F8542B0AB924
:10AC10000823C7E762690AB90323C3E7C2F30B013C
:10AC200031B1D3F8FC10D3F8400B11448142F3D179
:10AC3000B2F5805F01D90423B4E7D3F8FC10D3F850
:10AC4000400B55188542E3D8C3F8EC20D3F8F42024
:10AC5000C3F8F810C3F8D810C3F8F020264862698A
:10AC6000D3F81C6B036802F6FF721D69120B0023F8
:10AC70003144A84700283FF4B2AE052392E71A4DAD
:10AC800095F8543B002BC3D0D5E93E21A38A521A34
:10AC9000D5F8EC101A448A42BED81748D5F8D860C7
:10ACA0000268D5F81C1BE7680097D7682269314411
:10ACB000B84708B1E36867E7A28AD5F8D8301344EB
:10ACC000C5F8D830A68AD5F8F8301E44C5F8F86023
:10ACD000A18A206905F1F002FEF74AFBCDE9036085
:10ACE000C5F8F0007BE600BF7C580020DBE5B151E1
:10ACF00000800F00B85700204C580020184BD3F8A4
:10AD0000F020D3F8F8300492039368E6144DD5E9A7
:10AD10003E23D5F8EC10D31A8B427FF479AFD5F8E7
:10AD2000F030C5F8F43000212046C5F8EC10C5F825
:10AD3000FC20FFF7CFF9D5F860320420984708B01F
:10AD4000BDE8F081064BD3F8F020D3F8F830039338
:10AD50004FF480530492059341E6022322E700BF9B
:10AD60007C58002070B586B08E6801920D4602A90D
:10AD70000446FDF770FE90B1A86880B16B78019A27
:10AD800003F03003202B04D111463046FFF7F5FACB
:10AD9000019A314602A8FFF7DFFB039B636006B010
:10ADA00070BD2DE9F347824601A80D4616461F46A1
:10ADB000FDF7DCFA10B3124BBDF80480D3F80C9009
:10ADC00019EB08041AD01C220021204602F044F995
:10ADD0000123237149F808A0BDF80420BDF806300E
:10ADE000A7602D0B9A42E560666101D1FDF7A6FAD6
:10ADF000FEF7FEFC002002B0BDE8F0870420FAE771
:10AE00007C5800202DE9F347824601A80F461646DC
:10AE10001D46FDF7ABFA18B3124BBDF80480D3F80A
:10AE20000C9019EB08041BD01C220021204602F0D4
:10AE300013F90023237149F808A00A9BBDF80420E8
:10AE4000A360BDF8063065619A42C4E9036701D189
:10AE5000FDF774FAFEF7CCFC002002B0BDE8F087E5
:10AE60000420FAE77C58002013B5134C142200216B
:10AE700004F52A7002F0F0F804F10C0353E8021F05
:10AE8000D888B1EB314F4FF0000217BF89B240EACA
:10AE9000004041EA004004E05968B1EB314F08BF7F
:10AEA000012243E802010029E8D18DF807209DF82E
:10AEB0000730002002B010BD7C5800202DE9F0437F
:10AEC000BC4DD5F8A034DA0795B000F1708105F5D6
:10AED0009963C5F8A434C5F8C4041123013BDBB25F
:10AEE000FF2B40F058810023CDE90E3385F8A834BC
:10AEF000089310930DA802230D93FDF749FB044618
:10AF0000002840F04481AC48FDF749FB0446002886
:10AF100040F03D81FEF72FFB0446002840F03781CA
:10AF2000A64B089301460C220DA802F095F80126C5
:10AF30000623089AADF838300DA920208DF834602A
:10AF40008DF83660FDF7F2FF21460C220DA802F0C5
:10AF500083F8089AADF836400DA940208DF8356089
:10AF6000FDF7E4FF21460C220DA802F075F8F72347
:10AF7000089AADF836300DA923208DF83460FDF71E
:10AF8000D5FF21460C220DA802F066F8089A8DF82C
:10AF900034600DA93046FDF7C9FF21460C220DA8EB
:10AFA00002F05AF84FF4B063089A0D930DA9A1204E
:10AFB000FDF7BCFF21460C220DA802F04DF89DF8CC
:10AFC0003430089A64F300030DA9A0208DF83430C2
:10AFD000FDF7ACFF08A8FDF7ABFF0446002840F0E2
:10AFE000D68002461821764885F8A462FEF7C0F99B
:10AFF0007449D1F89C3198420BD173481C2201F559
:10B00000CE7102F01BF8D5F8A03443F00203C5F866
:10B01000A03411230DA88DF82030FDF7E5FB044680
:10B02000002840F0B4809DF835300DA801338DF82C
:10B030003530FDF7DBFB0446002840F0A880D5F84A
:10B04000A0349B0740F1AE80D5F8700B5F4982B207
:10B0500008A8FDF763FB0446002840F098805C4890
:10B06000FDF75EFB0446002840F09180594B4FF6F7
:10B07000FF721A8001204FF65963574A8DF80A0073
:10B0800002A9ADF80830FDF73DFB044600287ED14B
:10B09000524B04AA03F11007164618685968144663
:10B0A00003C40833BB422246F7D14D493046FDF771
:10B0B0007AFA044600286AD101461C220DA801F044
:10B0C000CBFF9DF83430B5F86402ADF8044043F08E
:10B0D00004038DF834300223ADF80C3095F8663255
:10B0E0008DF80E3004F0F80343F003038DF80630BA
:10B0F000F423CDE90A4401AEADF82C304FF011092C
:10B10000384B0C9403AF08AA0DA9CDE908768DF849
:10B110000590FDF7F5FAA0460446C0BB01461C2287
:10B120000DA801F099FF9DF83430B5F86402ADF830
:10B13000044023F0180343F018038DF83430012342
:10B14000ADF80C3095F866328DF80E3008F0E8084E
:10B150001723CDE90A4448F01308ADF82C3008AAAB
:10B16000214B0C940DA9CDE908768DF805908DF84A
:10B170000680FDF7C5FA044648B9FDF7DDFA044636
:10B1800028B9D5F8A03443F00103C5F8A03420460F
:10B1900015B0BDE8F083D5F8A424511CC5F8A4145B
:10B1A00013709BE6114801F05FFF10494FE7002440
:10B1B000EDE700BF7C58002000800F00B85700204A
:10B1C000A0F10F0000F00F00D4630020D86300202E
:10B1D0009AD10F00B8570020E05A0020ECD10F00A0
:10B1E000E25A0020E45A0020EC5A002094D00F00CC
:10B1F00038B50A4B0025C3F8C855BFF35F8F084C1C
:10B200000123C4F8003500F073FEC4F8005520B1E6
:10B21000052848F2035018BF032038BD7C58002091
:10B2200000A002502DE9F84313681F2B144629D9BA
:10B23000174E012306F5B96252E8005F1F4642E847
:10B24000007C9CF0000FF7D1BFF35F8FEDB9DFF802
:10B250004890104FC9F800354FF48068C7F8048053
:10B26000083000F015FEC9F80055C7F88480BFF318
:10B270005F8FC6F8C855FDF7BDFE08B920232360CF
:10B28000BDE8F88348F21450FAE748F20450F7E7B3
:10B290007C58002000E100E000A002502DE9F041C0
:10B2A000012314460F46224A52E8001F1D4642E879
:10B2B000005696F0000FF7D1BFF35F8FA1BB1D4A78
:10B2C000DFF87C80C2F800351B4B4FF4806200F140
:10B2D00008055A60B4F5805F264628BF4FF48056B3
:10B2E00039463246404601F0A9FE324641462846DC
:10B2F00000F076FDA41B3744A0B9002CEAD10D4A1A
:10B300000023C2F800350C4A4FF48061C2F8841063
:10B31000BFF35F8F094AC2F8C8352046BDE8F04147
:10B32000FDF768BE0446EAE748F20450BDE8F08144
:10B33000445E002000A0025000E100E07C580020A4
:10B340004C78002008B5083000F030FDBDE808401A
:10B35000FDF750BE044B002282B01A601B680193B7
:10B36000019B02B0704700BF0001014013B52A4B9A
:10B370001A6852B12949D1F8742B0132C1F8742BE3
:10B3800000221A601B680093009B254B1A68A2B12B
:10B3900000221A6023481B68027C0193019B4FF432
:10B3A00080339340204AC2F808338168044611BBB9
:10B3B000C168E1B9636803B198471C4B1A684AB386
:10B3C00000221A6017481B6890F820200193019B07
:10B3D0004FF480339340144AC2F80833816904461D
:10B3E00069B1143002B0BDE81040FDF75FBC043015
:10B3F000FDF75CFCDEE70430FDF758FCDDE7C169D2
:10B4000011B11430FDF752FC63691BB102B0BDE805
:10B410001040184702B010BD044102407C58002083
:10B4200040410240B85700200040024044410240E1
:10B430001EF0040F0CBFEFF30880EFF3098000F05B
:10B4400001B800BF70B5144B144A0C21D21AB2FBDC
:10B45000F1F2816911F8025C044635B900690021F6
:10B46000914205D1012323600EE04FF0FF30F6E753
:10B470001E68AE420CD1461C07D19D68D4E900017C
:10B48000D4E90223A847206070BD5E688642F4D0EC
:10B4900001310C33E4E700BF24D40F0030D40F0097
:10B4A00007B50A4B0A4A00930A4B934208BF002390
:10B4B0000193019B13B903B05DF804FBD3E90020AD
:10B4C00090476846FDF7CCFDF3E700BF88D20F0038
:10B4D0005CD40F004CD40F0008B54FF0804300221D
:10B4E000C3F80C21C3F81021C3F838254FF080525F
:10B4F00003F54043D2F80414C3F82015D2F8081419
:10B50000C3F82415D2F80C14C3F82815D2F8101477
:10B51000C3F82C15D2F81414C3F83015D2F8181447
:10B52000C3F83415D2F81C14C3F84015D2F820140F
:10B53000C3F84415D2F82414C3F84815D2F82814D7
:10B54000C3F84C15D2F82C14C3F85015D2F83014A7
:10B55000C3F85415D2F83414C3F86015D2F838146F
:10B56000C3F86415D2F83C14C3F86815D2F8401437
:10B57000C3F86C15D2F84424C3F87025FDF760FDBC
:10B5800010B1334B334A1A60FDF75AFD18B1324BF4
:10B59000FB22C3F81825FDF753FD48B12F49304B66
:10B5A0000A681B6822F00F0203F00F0313430B60BD
:10B5B000FDF746FD18B12B4B4FF400721A604FF0A7
:10B5C0008043D3F80024D20744BF6FF00102C3F8D0
:10B5D0000024254AD2F8883043F47003C2F888303A
:10B5E000BFF34F8FBFF36F8F4FF01023D3F80022BC
:10B5F000002A03DBD3F80432002B24DA1B4B012290
:10B60000C3F80425D3F80024002AFBD04FF0102201
:10B610001221C2F80012D3F80024002AFBD04FF008
:10B6200010231222C3F80422104B1A46D3F8001438
:10B630000029FBD00021C3F80415D2F80034002BF8
:10B64000FBD0FDF7E5FB0A4B0A4A9A6208BD00BF32
:10B650008C5600404881030000F00040E40E00409A
:10B66000580200104096024000ED00E000E001406A
:10B67000B85700200090D0032DE9F0434FF48051DB
:10B6800091B00020FCF7E8FE08B1FDF7C1FBCA4805
:10B69000C0F57E21C1F30B03002BF6D1B0F57F2F4F
:10B6A000F3D8FCF7D9FE01460028EED1C34AC44CBA
:10B6B000C44BC4F8E4371046C34B1360FDF751FE8A
:10B6C000054690460028E0D1C0480668721C70D03C
:10B6D0002A4658210430FDF74BFE331A5E425E4184
:10B6E000BB4FD7F80090B9F1FF3F00F0FC8100227A
:10B6F0005821381DFDF73CFE814540F0F48186B1AC
:10B70000B4495422381D01F08BFCB34906464FF46E
:10B71000807207F15C0001F083FC50EA060300F040
:10B72000E581AB49AD484FF4DC7201F087FCFEF7D0
:10B73000CFFB0028A9D1D4F8D430AA2B00F02D815A
:10B7400043D8012B4BD0A52B00F02381D4F8C8306F
:10B75000012B40F02D81D4F8C43023B1FDF724FE35
:10B76000002800F025814FF08043D3F81C3513F0FA
:10B77000B10F40F01D81D4F80432D4F844221340B4
:10B78000013340F09A8100239049954884F8A33210
:10B79000FEF73CFB934B4FF0FF32C3F88020C3F819
:10B7A00080214FF000534FF480521A60FEF78CF85E
:10B7B0006BE72E4694E789484FF4DC72314601F07E
:10B7C0004BFC0123C4F8AC30B1E7AC2BBED1FEF783
:10B7D00011FC002840F0DF80FEF73CFCDBE0D4F8F1
:10B7E000F010D4F8CC60FCF78BFE814240F0708101
:10B7F000FCF786FE00223146FDF7BAFDD4F8D030C2
:10B80000984202BF0123C4E93103C4F8C060002696
:10B810007548FEF753FC0023744884F8A032FEF705
:10B8200077FB00287FF431AF002E00F0B980D4F808
:10B83000C830012B40F0B480D4F8C43023B1FDF7F8
:10B84000B3FD002800F0AC804FF4A02694F8A2329B
:10B850000BB9FDF7A5FA664BC4F8B83403F5847349
:10B86000C4F8BC34002384F8B53484F8B434182305
:10B87000A4F8C0342023A4F8B6344FF080435D4FC1
:10B88000D3F81C25DFF8A89112F0B10F1EBFD3F832
:10B890001C2502F04E02C3F81C253A7C4FF480337D
:10B8A0009340554AC2F80833FDF734FA3846534BF3
:10B8B00040F8043F3146FDF7F9F9514F514B524ED4
:10B8C000C4F89C320020FCF793FFF61BF608AE424A
:10B8D00040F0B4804D4B3948C8F800300021FDF7E6
:10B8E0007FFC054600287FF4D0AED4F8E030002B72
:10B8F00040F0AD800023464F464E84F8543BF61B83
:10B900000122F60884F8982FAE4240F0AB80022363
:10B9100084F8983F404A1F2312F8011B0DF80310CA
:10B92000013BF9D23D4920230DF13F0211F8010BF3
:10B9300002F80109013BF9D1C4F8DC342022384B6C
:10B940003848C4F8E034694601F078FB20223648D4
:10B950000DEB020101F072FB344BC4F8DC3494F8B7
:10B96000543B002B40F08680314BC4F86032314D9F
:10B97000002384F87C32D5F800340BB1FDF774F95C
:10B9800094F8B42494F8B5349A4279D1FDF73EFA8C
:10B99000F1E7FEF72FFB01263AE7FEF75BFB36E700
:10B9A00000230A49244884F8A332FEF72FFA6CE6F4
:10B9B0004FF470164AE700BF00800F004C5800207B
:10B9C0007C580020698F0F00FCD10F0000F00F00A1
:10B9D00000E00F0004F00F005CF00F00245900207D
:10B9E000FD8D0F0000E100E0485900209F8C0F0002
:10B9F000F4630020B857002000400240B59E0F00BD
:10BA00001CD40F00419E0F0024D40F0068D20F00F9
:10BA100014D40F001CD40F001CD20F003CD20F0016
:10BA20005CD20F00605D0020805D00207052464DAA
:10BA3000F1870F0000000140358E0F0057F83530B8
:10BA40004846984700287FF420AE01353FE7FEF7CF
:10BA500058FE00283FF44EAFD4F8CC30003B18BF5E
:10BA6000012348E757F83530984700287FF452AF54
:10BA7000013549E7FEF770FE01283FF475AF04E693
:10BA800094F8B434D4F8B824B4F8C064D4F8BC043E
:10BA900002EBC30103FB060052F83320898890476C
:10BAA00094F8B424B4F8B614D3B2914286BF0133EB
:10BAB000DBB2002384F8B43462E74FF47F20FDF753
:10BAC00019FA0E4957224FF47F20FDF7F2F95AE692
:10BAD000D4F8D830F21A19441844FEF727FA00288F
:10BAE0007FF495AE84E6002E3FF465AE044903482A
:10BAF0004FF4DC7201F0A2FA1DE600BF24590020C9
:10BB000000F00F0030B10268034B04489A4208BFAE
:10BB10000020704702487047DD55AABB8208F0003C
:10BB20007108F00038B50D460446B0B1A0220021DE
:10BB3000043000F045FD95B12946082204F1640067
:10BB400000F044FD082205F1200104F1840000F01A
:10BB50003DFD044B2360002038BD034838BD034839
:10BB600038BD00BFDD55AABB7108F0008308F000A6
:10BB70002DE9F74305460E4699461146FFF7C2FFE9
:10BB80000446002840F08480002E00F085800029C3
:10BB900000F08480B9F1200F40F0828005F1440468
:10BBA000082205F10408204600F010FD05F12407E5
:10BBB00008223146404600F009FD06F12001082226
:10BBC000384600F003FD02A94FF4807041F8049D4F
:10BBD00000F0A6FA002865D1334A4FF48073136051
:10BBE000012193600823314A00F04AFB01210846F5
:10BBF00005232F4A00F044FB0823424601211C2064
:10BC000000F03EFB08233A460121032000F038FBF8
:10BC1000224608230121022000F032FB0823254A96
:10BC200001211A2000F02CFB0523234A01211B20AF
:10BC300000F026FB0823214A0121142000F020FBFC
:10BC400008231F4A0121152000F01AFB082305F1E3
:10BC500064020121162000F013FB082305F1840281
:10BC60000121172000F00CFB0823164A01210B20AC
:10BC700000F006FB00F060FB0446019800F0EEFACD
:10BC8000114B002C18BF1C46A421284600F09AFC3A
:10BC9000204603B0BDE8F0830C4CF9E70C4CF7E705
:10BCA0000C4CF5E7084CEFE790B0025050D30F0072
:10BCB000C8D30F0010D30F00B4D30F0074D30F00FC
:10BCC00094D30F0030D30F008408F0007608F00002
:10BCD0008008F0008108F0002DE9F041069F04463D
:10BCE00015461E46FFF71EFF38B93B463246294629
:10BCF0002046BDE8F041FFF73BBFBDE8F081000002
:10BD00000C4BC2691A60826943F8042C426943F8FB
:10BD1000082C026943F80C2CC26843F8102C826886
:10BD200043F8142C426843F8182C026843F81C2C82
:10BD3000704700BF5CB602500C4B1B68C3610C4BD4
:10BD40001B6883610B4B1B6843610B4B1B680361D2
:10BD50000A4B1B68C3600A4B1B688360094B1B6856
:10BD60004360094B1B680360704700BF5CB602501C
:10BD700058B6025054B6025050B602504CB602505B
:10BD800048B6025044B6025040B6025030B1026884
:10BD9000034B04489A4208BF00207047024870478E
:10BDA000DD55AABB0202F0000002F00038B50446DF
:10BDB00068B1051D2846702100F004FC28462022A9
:10BDC000044900F0FBFB044B2360002038BD03480E
:10BDD00038BD00BFECD30F00DD55AABB0002F00058
:10BDE000294B2DE9F04304460E4615460FCB85B08E
:10BDF0006F468DE80F002DB94FF00009484605B099
:10BE0000BDE8F0832046FFF7C1FF81460028F5D149
:10BE1000231D0193636AA3BB236F8BB1C3F1400859
:10BE2000A84528BFA84604F13000314618444246D0
:10BE300000F0C4FB236F434446442367A5EB080589
:10BE4000226F402A06D104F13001384600F0CCFBC5
:10BE50000023236705F03F0835F03F0505D0314644
:10BE60002A46384600F0C0FB2E44B8F1000FC3D07C
:10BE70004246314604F1300000F0A0FBC4F8708067
:10BE8000BCE7DFF80890B9E7DCD30F000C02F00044
:10BE90002DE9FF41144B04460E460FCB8DE80F00F1
:10BEA0002046FFF773FF8046B0B9CEB1636A251D07
:10BEB00001953BB901236362226F04F130016846AA
:10BEC00000F092FB2B46043E243453F8042B12BAA4
:10BED000A34246F8042FF8D1404604B0BDE8F081F3
:10BEE000DFF80880F8E700BFDCD30F000502F000A0
:10BEF000084B1B681B0EF02B08D1074B1A68074B29
:10BF00009A4205D1064B0020186070470520704703
:10BF10000620704728B9025024BA02500000E020E1
:10BF20000CBA025030B500220C4C490013460238BE
:10BF300040F6FC75904202F10102CABF2360256001
:10BF40005B181E2A04F10404F4D1054A1944136055
:10BF5000044B054A19609A6030BD00BF00B0025022
:10BF600078B002507CB0025020F80F0030B51E4B64
:10BF700085B01A46196800910099CC07FAD500F1EE
:10BF8000A05000F52C408000016813680193019BCC
:10BF9000D807FAD5154B164C1868164D1F302023BC
:10BFA00090FBF3F00138002810DA00230130400143
:10BFB00053B1A0F120014FF00042134204D10138E7
:10BFC00081424FEA5202F8D105B030BD13680393A5
:10BFD000039BDB07FAD5431823602B680293029B6F
:10BFE000002BE3D10138DEE7B4B00250ACB0025010
:10BFF000E4B00250DCB002507FB51C681CB901F0FF
:10C000001F041F2C27D1174C254626680196019E38
:10C01000F607FAD500F1A05000F52C40800000682A
:10C020002C680394039CE407FAD50F4C00EB6110D5
:10C0300020600E4801F01F04006802901F2C18BFFA
:10C04000C94302980FBF106001F01F0100FA01F10F
:10C0500011600021196010684300C00F136004B024
:10C0600070BD00BFB4B00250E4B00250DCB002506A
:10C070000C4B18603F3020F03F0089014030586081
:10C080009960D9601961596199611C33064819603A
:10C0900082B002680192019AD207FAD5196002B003
:10C0A000704700BF90B00250B4B0025038B5A0F154
:10C0B0002003B3F5426F05462CD88F2826D800F10F
:10C0C000470300F16604DB064FEA541400D0013444
:10C0D00064013F34A409013411B1A1421AD30C46C2
:10C0E000E3004FF48050B0FBF3F0202828BF20205D
:10C0F00002B11060084B01221A602146FFF712FFBF
:10C1000028462146FFF7B4FF002038BD00F11F0488
:10C110006409DDE7014838BD1CB802502221F00057
:10C120000A460021FFF7C2BFF0B5464B89B01D4655
:10C130001C680194019CE407FAD5434BDFF810C159
:10C14000DFF810E113449B000A181B681E2A88BF01
:10C15000C0F11E011F330A185B095A43B2F5806F04
:10C1600088BF4FF480614FF0000484BFB1FBF3F14E
:10C17000091A00F1A05000F52C402746A14233DCFB
:10C180002A680492049AD207FAD5304A12682968BC
:10C1900005910599CF07FAD52D482E4C0260002253
:10C1A00016469A4202F1010140D12A4C134621F071
:10C1B000010100268B423CD32B680693069BDE07C9
:10C1C000FAD5254B1B682C680794079CE407FAD521
:10C1D000036000231F481C469A422DD11D4A0020AF
:10C1E0008B422CD309B0F0BD2A680292029AD20782
:10C1F000FAD50219920012682E680396039EF6077C
:10C20000FAD5CCF8002000229A4202F1010206D1B0
:10C210001E4622F00102964204D30134AEE7CEF866
:10C220000070F1E7CEF800700136F4E726600A46A8
:10C23000B7E726600133BDE704600133CCE7106047
:10C240000133CDE7B4B0025024AC00147CB00250EE
:10C25000D4B00250D8B0025078B0025008B540B106
:10C26000202801464FF0070228BF20210020FFF7B9
:10C270005BFF024B00221A6008BD00BF1CB80250D1
:10C28000F0B5294D85B02C462E680096009EF60725
:10C29000FAD500F1A05000F52C4080000568206818
:10C2A00001900198C707FAD52048214F056002EB9D
:10C2B0008306B24229D15A1C1D4E22F001020027EA
:10C2C000934227D323680293029BDE07FAD5194BCA
:10C2D0000B449B001B681F335B099A4213D22168F1
:10C2E00003910399C907FAD5154400219B1A104AF6
:10C2F00005600846994210D35A1C0D4922F00102EC
:10C30000002093420CD305B0F0BD52F804EBC7F8FF
:10C3100000E0CEE737600133D2E710600131E9E792
:10C3200008600133EDE700BFB4B00250D4B0025052
:10C33000D8B0025024AC00142DE9F041814B1D68A7
:10C3400098682033A0B01E461A680192019AD70758
:10C35000FAD57D4B7D4A1A6032680292029AD40760
:10C36000FAD57B4A1A607B4A1446116803910399F7
:10C37000C907FAD5784A1168C1F340213768049794
:10C38000049FFF07FAD5754F1F6027680597059F23
:10C39000FF07FAD51768002900F0CF80B90540F1F2
:10C3A000CC80316806910699CF07FAD56C4919609F
:10C3B000216807910799C907FAD51168C1F340218F
:10C3C00037680897089FFF07FAD5664F1F602768F0
:10C3D0000997099FFF07FAD51268002900F0AF807E
:10C3E000910540F1AC8032680A920A9AD207FAD5D8
:10C3F000564A1A6032680B920B9AD707FAD55A4AF6
:10C400001A6031680C910C99CC07FAD5574919601C
:10C4100031680D910D99C907FAD5554919603168F0
:10C420000E910E99CF07FAD55249196031680F91D4
:10C430000F99CC07FAD550491960504B1E46196820
:10C4400010911099C907FAD53F4C4D4B23603368C2
:10C450001193119BDB07FAD54A4B23603368129383
:10C46000129BDF07FAD5484B23603A4B9846196870
:10C4700013911399C907FAD5324F38603368149372
:10C48000149BDB07FAD5226033681593159BD807F8
:10C49000FAD53E4B236033681693169BD907FAD51D
:10C4A0003B4B236033681793179BDA07FAD5394B58
:10C4B000236033681893189BDB07FAD5364B23604B
:10C4C00033681993199BD807FAD5344B2360336826
:10C4D0001A931A9BD907FAD5314B236033681B9303
:10C4E0001B9BDA07FAD52F4B236000F037FC08BB03
:10C4F000D8F800301C931C9BDB07F9D53D603368EE
:10C500001D931D9BD907FAD5274B236033681E93D3
:10C510001E9BDA07FAD5254B2360D8F800301F930D
:10C520001F9BDB07F9D50C4B1B6813F4805F204B76
:10C5300008BF184620B0BDE8F0811E48FAE71E4843
:10C54000F8E700BF90B0025080B0025000100251D6
:10C55000C01F7229B4B0025088B00250C0CF012968
:10C56000C01F0E29C03F002940010249003184A8A4
:10C5700000001649400108A180440888B0B002506C
:10C58000C044708880077A41C0077E4100006A4934
:10C590008006164940006E490002002100822021D9
:10C5A000408220218082242140A161A100C86151E4
:10C5B0000308F1000108F1000208F10000F03EBD9F
:10C5C00000F04ABD0A46002100F046BD01EB8202A0
:10C5D00004388A4201D10020704752F8043D1BBA4A
:10C5E00040F8043FF5E700002DE9F74F314B446870
:10C5F0008046924699461A68002AFCD12E4B9B46EB
:10C600001A68002AFCD14FF0FF30019100F098FC2D
:10C61000802000F09BFC294D294A2A4F2A4E0123F5
:10C6200007202B60A2F59E72C2F83C011360636A7A
:10C630003B60A36A3360D8F8003042F8043CD8F875
:10C640000830204698470199D9F80030002BFBD1DB
:10C65000BAF1000F20D11D4B04221A60D9F8003026
:10C66000002BFBD1DBF800A0BAF1000FFAD1D8F80B
:10C670000C30204698473B6863623368A362144BD2
:10C68000C3F800A0C3F844A1D9F80030002BFBD1B7
:10C690002B6003B0BDE8F08F236A012B04BF0C4A66
:10C6A00013600C4B40201960C3F804A000F054FC48
:10C6B000D4E700BF10B9025020BC025018B8025095
:10C6C00000B90250CCB70250D0B70250C8B70250E0
:10C6D00084B6025028BC025010B5544B98B019468D
:10C6E0001A680192019AD207FAD5514B514A1A6041
:10C6F0000A680292029AD407FAD54F4A1A600A6869
:10C700000392039AD007FAD54C4818600A6804923D
:10C71000049AD207FAD54A4A1A600A680592059A1D
:10C72000D407FAD5474A1A600A680692069AD207D1
:10C73000FAD5454A1A600A680792079AD407FAD5CB
:10C74000424A1A600A680892089AD207FAD5404A03
:10C750001A600A680992099AD407FAD53D4A1A6004
:10C760000A680A920A9AD207FAD53B4A1A600A68FE
:10C770000B920B9AD407FAD5384A1A600A680C92C1
:10C780000C9AD207FAD5364A1A600A680D920D9AA9
:10C79000D407FAD5334A1A600A680E920E9AD20765
:10C7A000FAD5314A1A600A680F920F9AD407FAD55F
:10C7B0002E4A1A600A681092109AD207FAD52C4AAB
:10C7C0001A601A4B19461C681194119CE407FAD59B
:10C7D000174B1860086812901298C407FAD51A60AF
:10C7E0000A681392139AD007FAD5124A1A600A6897
:10C7F0001492149AD207FAD51E4A1A600A68159242
:10C80000159AD407FAD51C4A1A600A681692169A25
:10C81000D007FAD5194A1A600A681792179AD207F0
:10C82000FAD5174A1A6018B010BD00BFB0B0025058
:10C8300080B00250009365210004319040966590CD
:10C840000083612100C3302100C3649000816190A6
:10C8500000461021008111210041442100C32029FC
:10C860000C4610C80086312100C3602140C1282930
:10C87000409665210013319040962529594614C8E9
:10C880004004324910B5494B94B019461A680092D9
:10C89000009AD207FAD5464B464A1A600A680192B6
:10C8A000019AD407FAD5444A1A600A680292029A99
:10C8B000D007FAD5414818600A680392039AD20754
:10C8C000FAD53F4A1A600A680492049AD407FAD546
:10C8D0003C4A1A600A680592059AD207FAD53A4A84
:10C8E0001A600A680692069AD407FAD5374A1A607F
:10C8F0000A680792079AD207FAD5354A1A600A6879
:10C900000892089AD407FAD5324A1A600A6809923E
:10C91000099AD207FAD5304A1A600A680A920A9A26
:10C92000D407FAD52D4A1A600A680B920B9AD207DF
:10C93000FAD52B4A1A600A680C920C9AD407FAD5D9
:10C94000284A1A600A680D920D9AD207FAD5264A2B
:10C950001A600A680E920E9AD407FAD5234A1A6012
:10C960000A680F920F9AD207FAD5214A1A600F4B24
:10C9700019461C681094109CE407FAD50C4B1860FB
:10C98000086811901198C407FAD51A600A681292C3
:10C99000129AD007FAD5174A1A600A681392139AA6
:10C9A000D207FAD5144A1A6014B010BDB0B00250C4
:10C9B00080B00250809065210004099040966590F7
:10C9C0008080612180200821802064900081619016
:10C9D000004610210081112100414421802020299E
:10C9E000024610C8008609218020602140212829A4
:10C9F0004096652140962529594614C810B5504BDC
:10CA000096B01C461A680192019AD207FAD54D4B8E
:10CA10004D4A1A6022680292029AD207FAD54B4A0E
:10CA20001A604B4A42EA804022680392039AD20776
:10CA3000FAD5186022680492049AD007FAD5454ABC
:10CA40001A60A2F5800242EA814122680592059AA5
:10CA5000D207FAD5196022680692069AD007FAD54D
:10CA60003D4A1A6022680792079AD107FAD53B4AD5
:10CA70001A6022680892089AD207FAD5384A1A60D2
:10CA800022680992099AD007FAD5364A1A602268B4
:10CA90000A920A9AD107FAD5334A1A6022680B9291
:10CAA0000B9AD207FAD5314A1A6022680C920C9A76
:10CAB000D007FAD52E4A1A6022680D920D9AD10736
:10CAC000FAD52C4A1A6022680E920E9AD207FAD52D
:10CAD000294A1A6022680F920F9AD007FAD5274A7E
:10CAE0001A60216810911099C907FAD51A60144B81
:10CAF0001A46196811911199C807FAD5114B2049A6
:10CB00001960116812911299C907FAD51D49196067
:10CB1000116813911399CC07FAD50B491960116864
:10CB200014911499C807FAD517491960116815911D
:10CB30001599C907FAD5154A1A6016B010BD00BF7D
:10CB4000B0B0025080B002504004419000862929C4
:10CB5000D81001C840144190401421294014652187
:10CB60000034409000310C90C0400C90C03020291F
:10CB700040960D9000416090031645C80086112133
:10CB800000416021594644C84014459040142D90FE
:10CB900070B5264888B0054604680094009CE607F6
:10CBA000FAD52348234C0460234C44EA83432C6881
:10CBB0000194019CE407FAD50360930143EA8242A1
:10CBC00042F0104444F4C0442B680293029BDE07F9
:10CBD000FAD504602B680393039BDB07FAD5174B48
:10CBE00003608B0143EA814141F0104343F4C043A9
:10CBF0002E680496049EF607FAD503602B68059309
:10CC0000059BDE07FAD5046041F058412B68069376
:10CC1000069BDC07FAD5016042F058422B68079367
:10CC2000079BDB07FAD5026008B070BDB0B00250B8
:10CC300080B00250C0210229807100988061189054
:10CC400000B5374B8FB019461A680092009AD20788
:10CC5000FAD5344B344A1A600A680192019AD00717
:10CC6000FAD5324A1A600A680292029AD207FAD5B5
:10CC70002F4A1A600A680392039AD007FAD52D4A00
:10CC80001A600A680492049AD207FAD52A4A1A60EE
:10CC90000A680592059AD007FAD5284A1A600A68E8
:10CCA0000692069AD207FAD5254A1A600A680792B0
:10CCB000079AD007FAD5234A1A600A680892089A98
:10CCC000D207FAD5204A1A600A680992099AD00751
:10CCD000FAD51E4A1A600A680A920A9AD207FAD549
:10CCE0001B4A1A6008680B900B98C007FAD51A60A7
:10CCF0000A680C920C9AD007FAD5164A1A600A688C
:10CD00000D920D9AD207FAD5134A1A600E210D23FF
:10CD10000F220020FFF73CFF0FB05DF804FB00BFBF
:10CD2000B0B0025080B002508043012940633921E5
:10CD3000807001298020542100D13490C04034906B
:10CD4000C0302029C0530D9000413890832308C87B
:10CD500080E3102100413821CF4308C82DE9F0417C
:10CD600092B0012303930493624B1D461A68059207
:10CD7000059AD207FAD5604C604B2360604B194688
:10CD80001A680692069AD707FAD55E4B1A68D60437
:10CD900000F1A8802A680792079AD007FAD55A4A64
:10CDA00022600A680892089AD207FAD51E68C6F36C
:10CDB0000036002E40F098801220FFF7D7F8074683
:10CDC0001320FFF7D3F887428CBF12201320FFF700
:10CDD000CDF8471EFFF734FF03AB01AA39461220F6
:10CDE000FFF70AF904AB804602AA39461320FFF781
:10CDF00003F900EB4800022832D003283ED0012876
:10CE000074D12B680993099BDB07FAD53F4B23604C
:10CE10002B680A930A9BD807FAD53D4B23602B68F1
:10CE20000F930F9BD907FAD53A4B23602B681093C9
:10CE3000109BDA07FAD5384B23602B681193119BAE
:10CE4000DB07FAD5354B2360013F25D51023192286
:10CE500018210020FFF79CFE304612B0BDE8F0819B
:10CE60002B680B930B9BD907FAD52D4B23602B68AE
:10CE70000C930C9BDA07FAD52A4BCFE72B680D935E
:10CE80000D9BDB07FAD5284B23602B680E930E9B76
:10CE9000D807FAD5254BC1E703AB01AA39461220C2
:10CEA000FFF7AAF804AB044602AA39461320FFF79D
:10CEB000A3F810EB440402D1FFF70EFCC4E7FFF720
:10CEC000E1FC022C08D0032C09D0012C10D1172131
:10CED0001620FFF793FDB7E715211420F9E70F217E
:10CEE0000E20F6E7124EB7E7124EB5E7124EB3E743
:10CEF000124EB1E7B0B0025080B0025000084A5163
:10CF0000B4B0025088B0025000084E5100065A4991
:10CF100040065E49000442410014424940042E4943
:10CF2000000652494006564900063A4940063E4925
:10CF30000608F1000708F1000408F1000508F100F7
:10CF4000014B1860704700BF08BA0250014B1860CF
:10CF5000704700BF04BA0250094BC2431A60043B39
:10CF600082B01B680193074B019A104204D0064A15
:10CF70001060186802B0704720BF1A680192F3E78A
:10CF800004BA02504C88002008BA0250054B4FF0FA
:10CF9000FF321A6053F8042C034B1A601A68034BD3
:10CFA0001A60704704BA02504C88002008BA025038
:10CFB00008B5074B044613B10021AFF30080054BC1
:10CFC0001868836A03B19847204600F055F800BFFF
:10CFD000000000000CD40F0070B50D4D0D4C641B0B
:10CFE000A4100026A64209D10B4D0C4C00F046F8C7
:10CFF000641BA4100026A64205D170BD55F8043B61
:10D0000098470136EEE755F8043B98470136F2E7BA
:10D01000445800204458002044580020485800201C
:10D0200030B501390024A24201D1002005E0035DA2
:10D0300001340D5DAB42F6D0581B30BD0A4491421D
:10D0400000F1FF3300D1704710B511F8014B03F820
:10D05000014F9142F9D110BD02440346934200D1E1
:10D06000704703F8011BF9E7034613F8012B002A68
:10D07000FBD1181A01387047FEE700BFF8B500BFB2
:10D08000F8BC08BC9E467047F8B500BFF8BC08BCA9
:10D090009E46704761636F6E6E6F4F544100000093
:10D0A00045B30F009DB20F0025B20F002000000015
:10D0B0000000000000000000011104FC040000005A
:10D0C00000000000021104FC040000000000000049
:10D0D000032104FC0410000000000000041101FF03
:10D0E0000100000000000000051102FE0400000025
:10D0F00000000000061104FC040000000000000015
:10D10000071104FC0400000000000000081701FFE4
:10D110002200000098D20F00091001FF010000005A
:10D1200094D20F000000000000000000000000008A
:10D130000338FDD870470D0E0F1000006CD40F009F
:10D1400074D40F000800000044D40F004CD40F002A
:10D150000800000064D40F006CD40F000800000029
:10D160005CD40F0064D40F00080000000010000021
:10D170000400000001000000001000000400000096
:10D18000010000000000000000000000000000009E
:10D190000338FDD87047010000070C000C000000A8
:10D1A0005802000083890F0027890F00B5880F00FF
:10D1B000798B0F005F8B0F00218B0F00E18A0F002E
:10D1C00065AD0F0000000000011704FC980000008E
:10D1D000ECD20F00021704FCDC000000BCD20F00F0
:10D1E00000000000000000000000000050EADA30FB
:10D1F0008883B89F604F15F30000C98E63930F00BA
:10D2000059930F00399D0F00F9920F0091920F0072
:10D21000D9910F00D1910F007F920F00F8412EB4E9
:10D220000211C374E88E26A380C8A5CDA661CF00E5
:10D23000DCC0CD134BE6EA04E7784A8E77FC7BA688
:10D2400061BDEA6EB99FACE7D0D96C9A73B6222162
:10D25000E7E5D2C4A1D629E5A7FA23E648000000F5
:10D260000020400000000000E1910F0069AE0F00B7
:10D27000479D0F0005AE0F00A3AD0F00DD910F001D
:10D28000D5910F00BD910F004CD40F005CD40F005E
:10D290000800000000000000010100000100000083
:10D2A0000000000002050000210000000000000056
:10D2B0000000000000000000000000000107000066
:10D2C00098000000ECD20F000201000001000000F5
:10D2D0000000000003050000410000000000000005
:10D2E000000000000000000000000000011101FF2C
:10D2F0000100000000000000021702FE9400000080
:10D30000B8D00F0000000000000000000000000086
:10D31000FFFFFFFFFFFFFFFFFFFFFFFF0000000019
:10D32000000000000000000001000000FFFFFFFF00
:10D33000FCFFFFFFFFFFFFFFFFFFFFFF00000000FC
:10D34000000000000000000001000000FFFFFFFFE0
:10D35000512563FCC2CAB9F3849E17A7ADFAE6BC97
:10D36000FFFFFFFFFFFFFFFF00000000FFFFFFFFC9
:10D370000000000096C298D84539A1F4A033EB2DE7
:10D38000817D0377F240A463E5E6BCF847422CE1D7
:10D39000F2D1176BF551BF376840B6CBCE5E316B1B
:10D3A0005733CE2B169E0F7C4AEBE78E9B7F1AFEDF
:10D3B000E242E34FFFFFFFFF7F000000800000001C
:10D3C0000000000000000000FFFFFFFF7F000000E2
:10D3D00080000000000000000000000002000000CB
:10D3E0000000000001BD0F0039BD0F0067E6096AAB
:10D3F00085AE67BB72F36E3C3AF54FA57F520E5176
:10D400008C68059BABD9831F19CDE05BE4570020E6
:04D410000000000018
:08D41400F1B10F00E58F0F00DC
:08D41C00BDAE0F00CD940F001E
:0CD424000000000003000000618E0F00FB
:10D43000205D0020445D0020555D0020186800201C
:04D44000F4000000F4
:08D444009D990F00000000009B
:10D44C001D910F000000000079900F0000000000FB
:08D45C00A5910F000000000083
:08D46400CD970F00000000004D
:08D46C0015960F0000000000FE
:08D47400CCADFF7F01000000B8
:10D47C00FFFFFF00000000000000000000000000A3
:10D48C000000000000000000000000000000000090
:10D49C0001000000010000000090D003000000001B
:10D4AC000000000000000000000000000000000070
:10D4BC000000000000000000000000000000000060
:10D4CC000000000000000000000000000000000050
:10D4DC000000000000000000000000000000000040
:10D4EC000000000000000000000000000000000030
:10D4FC0000000000000000000000000025820F006A
:04D50C0001820F0089
:10D51000000000000000000095850F0000100000D2
:04D5200000001000F7
:020000020000FC
:020000041000EA
:0410140000800F0049
:0410180000E00F00E5
:04000003F00082B5D2
:00000001FF
